:03000000020A5D94
:0C0A5D00787FE4F6D8FD758164020AA4DD
:0D0EA900759501438E0275440175430022CA
:100E260075C7AA75C75575A3A475C7AA75C755759D
:030E3600AB0722E5
:03008B00020EF270
:070EF200538FEF754401323C
:0A0ECC0075869C758F08439C042274
:01008100225C
:070EF900120CC9120DE622E4
:070F0000120DCE120D772245
:100C28007F647E00120DB5120081120EA9120E26E5
:100C3800120E7D120D96120ECC120003120CF11238
:100C48000D77E544600F7544001206301209CF1283
:100C58000AE9120D15120EEAEF600543870280E2D9
:060C680043870180DD223C
:0A0ED6008F5FAF5F155FEF70F92228
:100E5D007FFA120ED67FFA120ED67FFA120ED62216
:100DB5008E598F5AE55A155AAE5970021559FFEFDB
:090DC5004E6005120E5D80EC2267
:0C0E39000A113F065B4F666D7D277F6F3E
:0300830002031362
:10031300C0E0C083C082C0D075D000C000C0075306
:10032300C4EFC280C281C284C290C292C29500430C
:10033300B10153B2FE43B10253B2FD43B11053B204
:10034300EF43B30153B4FE43B30453B4FB43B320AD
:1003530053B4DFE50D1202BA03710003A30103EFE7
:1003630002043B0304790404B705000004E6C280D9
:10037300E50E30E708D29053B3FE43B401E50F30E6
:10038300E708D29253B3FB43B404E51030E708D235
:100393009553B3DF43B42053B1FE43B2010204E6E5
:1003A300C284E50E30E008D28153B1FD43B202E5C9
:1003B3000E30E108D28053B1FE43B201E50E30E2C4
:1003C30008D29053B3FE43B401E50E30E308D29252
:1003D30053B3FB43B404E50E30E408D29553B3DFC3
:1003E30043B42053B1EF43B2100204E6D284E50FC5
:1003F30030E008C28153B1FD43B202E50F30E1089A
:10040300C28053B1FE43B201E50F30E208C29053FC
:10041300B3FE43B401E50F30E308C29253B3FB4389
:10042300B404E50F30E408C29553B3DF43B420535B
:10043300B1EF43B2100204E6C281E50E30E508D203
:100443008053B1FE43B201E50E30E608D29053B3B8
:10045300FE43B401E50F30E508D29253B3FB43B436
:1004630004E50F30E608D29553B3DF43B42053B10C
:10047300FD43B202806DD281E51030E008C28053A3
:10048300B1FE43B201E51030E108C29053B3FE431D
:10049300B401E51030E208C29253B3FB43B404E560
:1004A3001030E308C29553B3DF43B42053B1FD4387
:1004B300B202802FD280E51030E408C29053B3FE1D
:1004C30043B401E51030E508C29253B3FB43B404CF
:1004D300E51030E608C29553B3DF43B42053B1FEB1
:1004E30043B201050DAF0DEFD394054003750D0025
:0D04F300D007D000D0D0D082D083D0E0322E
:100D1500E50C450B6007AA0BA90C1202E0E50A6079
:100D250010750A00E50945086007AA08A909120215
:020D3500E022BA
:100DFC008E458F468C478D48854508854609854725
:050E0C000B85480C22DB
:100E11008E5B8F5CE509B55C09E508B55B047F0174
:050E210080027F0022A9
:100CC90043B10153B2FE43B10253B2FD43B11053D4
:100CD900B2EF43B30153B4FE43B30453B4FB43B37C
:080CE9002053B4DF53C4F722CD
:100DCE0043C40143C40253C4FB75C6F275C5FA434E
:080DDE009C02D2AF43C40822BD
:1000030053B3DF43B42053B3FB43B40453B3FE43AE
:10001300B40153B1FE43B20153B1FD43B20253B134
:10002300EF43B210D295D292D290D280D281D284B1
:1000330053B1DF53B1DF43B22053B1BF43B2405397
:10004300B17F43B280C285C286C287750A01750833
:1000530000750900750B00750C00750D00750EFF1A
:10006300750FFF7510FF43C40143C40253C4FB75EE
:0E007300C6F275C5FA439C02D2AF43C4082200
:030F0700000000E7
:030E4500012C007D
:0E0E8D00E52CD3940040047F0180027F0022F8
:10070800E52C640460030207BEAF2B152BEF6003D2
:100718000207BEE52D1202BA074800075101075A21
:1007280002076303076C04077505077E060787073A
:1007380007900807990907A20A07AB0B000007B43E
:10074800D287752B0A752D0122C287752B0A752D44
:100758000222D287752B0A752D0322C287752B0AB0
:10076800752D0422D287752B0A752D0522C287752F
:100778002B1E752D0622D286752B0A752D0722C2CF
:1007880086752B0A752D0822D286752B0A752D09B8
:1007980022C286752B0A752D0A22D286752B0A75F8
:1007A8002D0B22C286752B1E752D0022C287C2868C
:0707B800752D00752B0022D6
:1007BF00E52C64056003020873AF2F152FEF60035C
:1007CF00020873E5301202BA07FF0008080108118A
:1007DF0002081A03082304082C05083506083E07EB
:1007EF0008470808500908590A08620B0000086BEF
:1007FF00D287752F3C75300122C287752F3C75301B
:10080F000222D287752F3C75300322C287752F3C89
:10081F0075300422D287752F3C75300522C287753B
:10082F002F3C75300622D287752F0A75300722C2EA
:10083F0087752F0A75300822D287752F0A753009F0
:10084F0022C287752F0A75300A22D287752F0A7533
:10085F00300B22C287752F3C75300022C28775304E
:05086F0000752F0022BE
:100927008F60120E9BEF700E120EE0EF7008E560FD
:10093700B40103120E4C120086C3EF942CEE9401FF
:100947005010120E9BEF700A752C00C285C287C229
:100957008622120E8DEF700CE56064027069752CAB
:1009670001D28522E5606401704F052CAF2CEFD3CF
:1009770094054003752C01C285C287C286E52C12F7
:1009870002BA099C01099F0209A20309A50409B03B
:1009970005000009B6D28522D28722D28622C287D5
:1009A700C286752D00752B0022C286753000227510
:1009B7002C00C285C287C28622E560B40209752C65
:0809C70000C285C287C286222E
:100D37008F498D4A8B4B754C00854B4BE549120209
:100D4700BA0D4F0000000D54AF4A120927AF4C22CD
:100B5E00120E9BEF7010120EE0EF700A120E8DEF58
:100B6E007004120EF922052EAF2EEFD3946340259A
:100B7E00752E00120E9BEF60190531AF31EFD39435
:100B8E0003400F753100E52A70047F0180027F005B
:100B9E008F2A750A01120086C3EF942CEE94015031
:100BAE000F120E9BEF7009752C00C285C287C2868C
:070BBE001207081207BF2215
:100500007BFF7A0F7907C003C002C0017B007A002D
:10051000791BA801AC02AD03D001D002D0037E004C
:100520007F0312015E120E9BEF6068E52A60641281
:100530000F0D7E008E1E8F1FD3E51F9463E51E9462
:10054000004022AE1EAF1F7C007D64120184741136
:100550002FF8E6FF8F1BAE1EAF1F7C007D641201DB
:10056000848C1E8D1FAE1EAF1F7C007D0A1201847D
:1005700074112FF8E6FF8F1CAE1EAF1F7C007D0AA2
:10058000120184AF0574112FF8E6FFEF4480F51DCA
:10059000020626120F0A7E008E1E8F1FD3E51F94BF
:1005A00063E51E9400404CAE1EAF1F7C007D6412BC
:1005B000018474112FF8E6FF8F1BAE1EAF1F7C0065
:1005C0007D641201848C1E8D1FAE1EAF1F7C007DCA
:1005D0000A12018474112FF8E6FF8F1CAE1EAF1FA4
:1005E0007C007D0A120184AF0574112FF8E6FF8F9D
:1005F0001D8033D3E51F9409E51E94004013AE1E01
:10060000AF1F7C007D0A12018474112FF8E6FF8F62
:100610001BAE1EAF1F7C007D0A120184AF05741152
:100620002FF8E6FF8F1C851B0E851C0F851D1022E1
:100D7700752E00753100752A007E0D7F37120EB66D
:0F0D87007E057F007C0B7D5E120DFC750A01223C
:100BC500E521600415218003752201A294E433FF19
:100BD5008F61E56164016038E5287004752882221B
:100BE500E5286480703CE52765616036856127E509
:100BF50022B52704E521700B85272275290175216A
:100C05001E800675290275220175260575250022A7
:100C1500E5276401600C75280075260075270175A8
:030C250029002281
:100AE900E528547FFFEF60021528E526547FFFEFC4
:100AF90060021526120BC5E52764016057E52654E7
:100B09007FFFEF704FE526701F7526E4E524452326
:100B1900600F8524828523837B00AD29AF271202CC
:100B2900E475290375250322752699E525C394FFE4
:100B390050020525E5244523601AE5251313543F82
:100B4900FB852482852383AD29AF271202E4EF6058
:050B59000375290422D0
:0B0EB6008E5D8F5E855D23855E24222B
:100D960043B31053B4EF752800752600752100750E
:0F0DA6002500752900752701752300752400228B
:100C9D0001A4019A01900186017C01720168015E37
:100CAD000154014A014001900186017C01720168E5
:0C0CBD00015E0154014A01400136012C87
:05008600AE34AF35228D
:030F0A00AF3322E0
:030F0D00AF3622DA
:0E0E9B00E536D3945A40047F0180027F002286
:0A0EE0003097047F0180027F00229A
:100E4C00C3E535942CE53494014005D2B0753800D7
:010E5C002273
:1008740085344F853550E5396003153922120E9BB6
:10088400EF6050754D00E54DC3940A5022AF4DEF13
:1008940025E0249DF582E4340CF583E493FE740191
:1008A40093FFD3E5509FE54F9E5004054D80D7E557
:1008B4004DD3940A40047F0A8002AF4DEF75F00ACD
:1008C400A4FFC374649FF54EE54ED395334053851E
:1008D4004E3322754D00E54DC3940A5022AF4DEFBF
:1008E40025E024B3F582E4340CF583E493FE74012B
:1008F40093FFD3E5509FE54F9E5004054D80D7E507
:100904004DD3940A40047F0A8002AF4DEF75F00A7C
:10091400A4FFC374649FF54EE54EC395335003851D
:030924004E33222D
:1009CF0030B00BE53870057538018002C2B07F0674
:1009DF00120C6E7C007D481202E6C004C005C006F2
:1009EF00C0077F08120C6EAB07AA06E4F9F8D00710
:1009FF00D006D005D004120215EF2408F536120EDA
:100A0F009BEF65376008120E9B8F3775391E0532C5
:100A1F00AF32EFD3946440357532007F07120C6EFE
:100A2F007C007D781202E6C004C005C006C0077FB7
:100A3F0008120C6EAB07AA06E4F9F8D007D006D05F
:0E0A4F0005D0041202158E348F351208742261
:100CF10053ACFE43AD01C2B043B38053B47F7534EE
:100D01000075350075330075360075320075390090
:040D11007537002210
:0B0EC1008F62E562B40103120E4C22A8
:100D57008F518D528B53755400855353E5511202B1
:100D6700BA0D6F0000000D74AF52120EC1AF5422BE
:100E6D00120E9BEF7006120EE0EF6003120F0022C0
:01008200225B
:100DE6007E0D7F57120EB67E007F827C0E7D6D12C1
:060DF6000DFC750A01224C
:080EEA007E007F82120E11222E
:030E4800013A006C
:100C6E008F63E5631202BA0C87060C82070C8C08A0
:100C7E0000000C91AE3BAF3C22AE3DAF3E22AE3FEC
:0F0C8E00AF4022E47E007F0022E47E007F002240
:10063000755500755600755700755800053AAF3A64
:10064000EFD3940A5003020707753A0053E8F043CA
:10065000E80743B30253B4FD75F60043F68043E167
:1006600001C2EFD2EE30EFFDAFC3E4FCFDFE780433
:100670001202A7A804A905AA06AB07AFC2E4FCFDB5
:10068000FEEB4FFFEA4EFEE94DFDE84CFC8E3B8F42
:100690003C53E1FE53E8F043E80643B10853B2F798
:1006A00075F60043F64043E101C2EFD2EE30EFFDB4
:1006B000AFC37E00EF75F010A4FFAEF0ADC27C00BA
:1006C000EE4CF53DEF4DF53E53E1FE43E80853E8AF
:1006D000F843E101C2EFD2EE30EFFDAFC3E4FCFD21
:1006E000FE78041202A7A804A905AA06AB07AFC2A8
:1006F000E4FCFDFEEB4FFFEA4EFEE94DFDE84CFC4D
:080700008E3F8F4053E1FE2201
:100E7D0075640043B10853B2F743B30253B4FD2276
:100A6900020C28E493A3F8E493A34003F68001F26F
:100A790008DFF48029E493A3F85407240CC8C3338E
:100A8900C4540F4420C8834004F456800146F6DF5D
:100A9900E4800B0102040810204080900E39E47EA6
:100AA900019360BCA3FF543F30E509541FFEE49352
:100AB900A360010ECF54C025E060A840B8E493A319
:100AC900FAE493A3F8E493A3C8C582C8CAC583CA44
:100AD900F0A3C8C582C8CAC583CADFE9DEE780BEFC
:010E4B0000A6
:10008E00E709F608DFFA8046E709F208DFFA803E54
:10009E0088828C83E709F0A3DFFA8032E309F60841
:1000AE00DFFA8078E309F208DFFA807088828C83A9
:1000BE00E309F0A3DFFA806489828A83E0A3F6085D
:1000CE00DFFA805889828A83E0A3F208DFFA804C37
:1000DE0080D280FA80C680D4806980F2803380100E
:1000EE0080A680EA809A80A880DA80E280CA803377
:1000FE0089828A83ECFAE493A3C8C582C8CCC583EF
:10010E00CCF0A3C8C582C8CCC583CCDFE9DEE780BE
:10011E000D89828A83E493A3F608DFF9ECFAA9F03D
:10012E00EDFB2289828A83ECFAE0A3C8C582C8CC93
:10013E00C583CCF0A3C8C582C8CCC583CCDFEADEAC
:10014E00E880DB89828A83E493A3F208DFF980CC0E
:10015E0088F0EF60010E4E60C388F0ED2402B40407
:10016E000050B9F582EB2402B4040050AF232345AE
:06017E0082239000DE73F5
:10018400BC000BBE0029EF8DF084FFADF022E4CC5F
:10019400F875F008EF2FFFEE33FEEC33FCEE9DEC28
:1001A400984005FCEE9DFE0FD5F0E9E4CEFD22ED6E
:1001B400F8F5F0EE8420D21CFEADF075F008EF2FB8
:1001C400FFED33FD4007985006D5F0F222C398FDA9
:0501D4000FD5F0EA2246
:1001D90075F008758200EF2FFFEE33FECD33CDCCDD
:1001E90033CCC58233C5829BED9AEC99E582984060
:1001F9000CF582EE9BFEED9AFDEC99FC0FD5F0D63D
:10020900E4CEFBE4CDFAE4CCF9A88222B800C1B966
:100219000059BA002DEC8BF084CFCECDFCE5F0CBA4
:10022900F97818EF2FFFEE33FEED33FDEC33FCEBDD
:1002390033FB10D703994004EB99FB0FD8E5E4F998
:10024900FA227818EF2FFFEE33FEED33FDEC33FC85
:10025900C933C910D7059BE99A4007EC9BFCE99A79
:10026900F90FD8E0E4C9FAE4CCFB2275F010EF2FBE
:10027900FFEE33FEED33FDCC33CCC833C810D707BE
:100289009BEC9AE899400AED9BFDEC9AFCE899F8F9
:0E0299000FD5F0DAE4CDFBE4CCFAE4C8F9228C
:1002A700E8600FEFC333FFEE33FEED33FDEC33FCB5
:0302B700D8F12259
:1002BA00D083D082F8E4937012740193700DA3A3D3
:1002CA0093F8740193F5828883E4737402936860E7
:0602DA00EFA3A3A380DFE7
:0602E0008A838982E473A9
:1002E600EC8EF0A4CCC5F0CCCDF8EFA4CEC5F02DA5
:1002F600FDE43CFCE8A42EC8C5F03DFDE43CFCEF63
:0D030600A4FFE5F028FEE43DFDE43CFC22F0
:00000001FF
