:030000000207AF45
:0C07AF00787FE4F6D8FD7581610207F642
:0D0E2200759501438E027543017542002253
:03008B00020E6101
:070E6100538FEF75430132CE
:100D2500538FF7538FEF538FFB538FFD538FFE7503
:090D3500869C439C04438F0822B4
:1009B900A2AF9200C2AF75C7AA75C755439F01A2DE
:1009C9000092AF75A60475A70075AE0F75AFE1A2C9
:1009D900AF9200C2AF75C7AA75C75543A504A20057
:1009E90092AFA2AF9200C2AF75C7AA75C75543A40B
:1009F90001A20092AFE59F20E6FBA2AF9200C2AF31
:100A090075C7AA75C75553A5FBA20092AFA2AF92AD
:100A190000C2AF75C7AA75C755539FFEA20092AF12
:010A290022AA
:100BA1001209B975C7AA75C75575AA07A2AF9200F0
:100BB100C2AF75C7AA75C75543AA40A20092AFE557
:100BC100AA44BFFFEF64FF60F6D2AFA2AF9200C2AA
:0F0BD100AF75C7AA75C75543AA80A20092AF227D
:070E6800120C3F120D852260
:070E6F00120D57120CC922FD
:100A2A007F647E00120D3E120BA1120E22120D07D8
:100A3A00120CE8120D25120DF6120003120CC9A2AF
:100A4A00AF9200C2AF75C7AA75C75543AA40A200A4
:100A5A0092AFE5436022754300A2AF9200C2AF7520
:100A6A00C7AA75C75543AA40A20092AF12040A1238
:100A7A0008C6120944120C67120E59EF6005438723
:090A8A000280CF43870180CA22DB
:0A0E45008F5AAF5A155AEF70F922C8
:100DD6007FFA120E457FFA120E457FFA120E452251
:100D3E008E548F55E5551555AE5470021554FFEF70
:090D4E004E6005120DD680EC2266
:0C0D6F000A113F065B4F666D7D277F6F09
:0300830002008EEA
:10008E00C0E0C083C082C0D075D000C000C007538E
:10009E00C4EFC280C281C284C290C292C295004394
:1000AE00B10153B2FE43B10253B2FD43B11053B28C
:1000BE00EF43B30153B4FE43B30453B4FB43B32035
:1000CE0053B4DFE50D1203B100EC00011E01016A0D
:1000DE000201B60301F40402320500000261C2807F
:1000EE00E50E30E708D29053B3FE43B401E50F306E
:1000FE00E708D29253B3FB43B404E51030E708D2BD
:10010E009553B3DF43B42053B1FE43B201020261F3
:10011E00C284E50E30E008D28153B1FD43B202E550
:10012E000E30E108D28053B1FE43B201E50E30E24B
:10013E0008D29053B3FE43B401E50E30E308D292D9
:10014E0053B3FB43B404E50E30E408D29553B3DF4A
:10015E0043B42053B1EF43B210020261D284E50FD3
:10016E0030E008C28153B1FD43B202E50F30E10821
:10017E00C28053B1FE43B201E50F30E208C2905384
:10018E00B3FE43B401E50F30E308C29253B3FB4311
:10019E00B404E50F30E408C29553B3DF43B42053E3
:1001AE00B1EF43B210020261C281E50E30E508D212
:1001BE008053B1FE43B201E50E30E608D29053B340
:1001CE00FE43B401E50F30E508D29253B3FB43B4BE
:1001DE0004E50F30E608D29553B3DF43B42053B194
:1001EE00FD43B202806DD281E51030E008C280532B
:1001FE00B1FE43B201E51030E108C29053B3FE43A5
:10020E00B401E51030E208C29253B3FB43B404E5E7
:10021E001030E308C29553B3DF43B42053B1FD430E
:10022E00B202802FD280E51030E408C29053B3FEA4
:10023E0043B401E51030E508C29253B3FB43B40456
:10024E00E51030E608C29553B3DF43B42053B1FE38
:10025E0043B201050DAF0DEFD394054003750D00AC
:0D026E00D007D000D0D0D082D083D0E032B5
:100C6700E50C450B6007AA0BA90C1203D7E50A6030
:100C770010750A00E50945086007AA08A9091203C3
:020C8700D72272
:100D9B008E448F458C468D4785440885450985468D
:050DAB000B85470C223E
:100DB0008E568F57E509B55709E508B556047F01EA
:050DC00080027F00220B
:100C3F0043B10153B2FE43B10253B2FD43B110535E
:100C4F00B2EF43B30153B4FE43B30453B4FB43B306
:080C5F002053B4DF53C4F72257
:100D570043C40143C40253C4FB75C6F275C5FA43C5
:080D67009C02D2AF43C4082234
:1000030053B3DF43B42053B3FB43B40453B3FE43AE
:10001300B40153B1FE43B20153B1FD43B20253B134
:10002300EF43B210D295D292D290D280D281D284B1
:1000330053B1DF53B1DF43B22053B1BF43B2405397
:10004300B17F43B280C285C286C287750A01750833
:1000530000750900750B00750C00750D00750EFF1A
:10006300750FFF7510FF43C40143C40253C4FB75EE
:0E007300C6F275C5FA439C02D2AF43C4082200
:030D7B00012C0048
:0E0E0600E52CD3940040047F0180027F00227F
:1005A100E52C64046003020657AF2B152BEF6003A3
:1005B100020657E52D1203B105E10005EA0105F335
:1005C1000205FC03060504060E05061706062007AC
:1005D100062908063209063B0A06440B0000064DAF
:1005E100D287752B0A752D0122C287752B0A752DAD
:1005F1000222D287752B0A752D0322C287752B0A19
:10060100752D0422D287752B0A752D0522C2877597
:100611002B1E752D0622D286752B0A752D0722C237
:1006210086752B0A752D0822D286752B0A752D0920
:1006310022C286752B0A752D0A22D286752B0A7560
:100641002D0B22C286752B1E752D0022C287C286F4
:07065100752D00752B00223E
:10065800E52C6405600302070CAF2F152FEF60032C
:1006680002070CE5301203B106980006A10106AA9C
:100678000206B30306BC0406C50506CE0606D70760
:1006880006E00806E90906F20A06FB0B0000070463
:10069800D287752F3C75300122C287752F3C753083
:1006A8000222D287752F3C75300322C287752F3CF2
:1006B80075300422D287752F3C75300522C28775A4
:1006C8002F3C75300622D287752F0A75300722C253
:1006D80087752F0A75300822D287752F0A75300959
:1006E80022C287752F0A75300A22D287752F0A759C
:1006F800300B22C287752F3C75300022C2877530B7
:0507080000752F002226
:10070D008F5B120E14EF700E120E4FEF7008E55B3B
:10071D00B40103120DC5120086C3EF942CEE9401A3
:10072D00500A752C00C285C287C28622120E06EFB2
:10073D00700CE55B64027069752C01D28522E55B56
:10074D006401704F052CAF2CEFD394054003752C2D
:10075D0001C285C287C286E52C1203B1077C010751
:10076D007F0207820307850407900500000796D2D4
:10077D008522D28722D28622C287C286752D007528
:10078D002B0022C28675300022752C00C285C287CF
:10079D00C28622E55BB40209752C00C285C287C2F0
:0207AD008622A2
:100C89008F488D498B4A754B00854A4AE5481203BE
:100C9900B10CA10000000CA6AF4912070DAF4B2201
:100B5500120E14EF7010120E4FEF700A120E06EF00
:100B65007004120E6822052EAF2EEFD39463402534
:100B7500752E00120E14EF60190531AF31EFD394C5
:100B850003400F753100E52A70047F0180027F0064
:0C0B95008F2A750A011205A112065822D1
:1004E200120E14EF605CE52A6058120E797E008EBF
:1004F2001E8F1FAE1EAF1F7C007D6412027B741123
:100502002FF8E6FF8F1BAE1EAF1F7C007D64120228
:100512007B8C1E8D1FAE1EAF1F7C007D0A12027BDC
:1005220074112FF8E6FF8F1CAE1EAF1F7C007D0AF0
:1005320012027BAF0574112FF8E6FFEF4480F51D20
:100542008053120E767E008E1E8F1FAE1EAF1F7C52
:10055200007D6412027B74112FF8E6FF8F1BAE1E22
:10056200AF1F7C007D6412027B8C1E8D1FAE1EAFFE
:100572001F7C007D0A12027B74112FF8E6FF8F1C8C
:10058200AE1EAF1F7C007D0A12027BAF0574112FD5
:0F059200F8E6FF8F1D851B0E851C0F851D10229F
:100CC900752E00753100752A007E0C7F89120E2F52
:0F0CD9007E047FE27C0B7D55120D9B750A012274
:100A9300E521600415218003752201A294E433FF4C
:100AA3008F5CE55C64016038E52870047528822258
:100AB300E5286480703CE527655C6036855C27E546
:100AC30022B52704E521700B85272275290175219D
:100AD3001E800675290275220175260575250022DB
:100AE300E5276401600C75280075260075270175DC
:030AF300290022B5
:10094400E528547FFFEF60021528E526547FFFEF6A
:1009540060021526120A93E52764016057E52654C0
:100964007FFFEF704FE526701F7526E4E5244523CD
:10097400600F8524828523837B00AD29AF27120372
:10098400DB75290375250322752699E525C394FF94
:1009940050020525E5244523601AE5251313543F29
:1009A400FB852482852383AD29AF271203DBEF6007
:0509B400037529042277
:0B0E2F008E588F5985582385592422C6
:100CE80043B31053B4EF75280075260075210075BD
:0F0CF8002500752900752701752300752400223A
:100BE00001A4019A018E01880183017E017B0179B4
:100BF000017601700159012C0184017D0179017593
:100C00000170016D016A01680166015F0156012CE6
:030D7E000132FF40
:05008600AE35AF36228B
:030E7600AF342274
:030E7900AF37226E
:0E0E1400E537D3945A40047F0180027F00220C
:0A0E4F003097047F0180027F00222B
:100DC500C3E536942CE53594014005D2B07538005D
:010DD50022FB
:100AF6008F5DE55D1203B10B25000B29010B2D025D
:100B06000B31030B35040B39050B3D060B41070B67
:100B160045080B49090B4D0A0B510B00000B547588
:100B260034642275345A227534502275344622753F
:100B3600343C22753432227534282275341E2275CF
:0F0B460034142275340A227534052275340022C6
:10083B00120E14EF6043755E00E55EC3940C5023FB
:10084B00120086AD5EED25E024E0F582E4340BF575
:10085B0083E493FC740193FDC3EF9DEE9C50040560
:10086B005E80D6E532D3955E5006E53264FF704A62
:10087B00AF5E120AF6855E3222755E00E55EC394AA
:10088B000C5023120086AD5EED25E024F8F582E4D2
:10089B00340BF583E493FC740193FDC3EF9DEE9C45
:1008AB005004055E80D6E532C3955E4005E532B453
:0B08BB00FF08AF5E120AF6855E3222D5
:1008C60030B00BE53870057538018002C2B0AF3321
:1008D6000533EFD3940A40657533007F07120C1079
:1008E6007C007DB41203DDC004C005C006C0077FCE
:1008F60008120C10AB07AA06E4F9F8D007D006D008
:1009060005D00412030C8E358F3612083B7F061273
:100916000C107C007D481203DDC004C005C006C073
:10092600077F08120C10AB07AA06E4F9F8D007D027
:0E09360006D005D00412030CEF2408F537227A
:100D070053ACFE43AD01C2B043B38053B47F7535D6
:0E0D1700007536007534007537007533FE2206
:0B0E3A008F5FE55FB40103120DC522BD
:100CA9008F4C8D4D8B4E754F00854E4EE54C120382
:100CB900B10CC10000000CC6AF4D120E3AAF4F2265
:100DE600120E14EF7006120E4FEF6003120E6F22F2
:01008100225C
:100D85007E0C7FA9120E2F7E007F817C0D7DE612E1
:060D95000D9B750A01220E
:080E59007E007F81120DB02222
:030D810001390035
:100C10008F60E5601203B10C29060C24070C2E0826
:100C200000000C33AE3AAF3B22AE3CAF3D22AE3EAD
:0F0C3000AF3F22E47E007F0022E47E007F00229F
:10040A007550007551007552007553000539AF39A2
:10041A00EFD3940550030204E175390053E8F04321
:10042A00E80743B30253B4FD75F60043F68043E18F
:10043A0001C2EFD2EE30EFFDAFC3E4FCFDFE78045B
:10044A0012039EA804A905AA06AB07AFC2E4FCFDE5
:10045A00FEEB4FFFEA4EFEE94DFDE84CFC8E3A8F6B
:10046A003B53E1FE53E8F043E80643B10853B2F7C1
:10047A0075F60043F64043E101C2EFD2EE30EFFDDC
:10048A00AFC37E00EF75F010A4FFAEF0ADC27C00E2
:10049A00EE4CF53CEF4DF53D53E1FE43E80853E8D9
:1004AA00F843E101C2EFD2EE30EFFDAFC3E4FCFD49
:1004BA00FE780412039EA804A905AA06AB07AFC2D8
:1004CA00E4FCFDFEEB4FFFEA4EFEE94DFDE84CFC75
:0804DA008E3E8F3F53E1FE222C
:100DF60075610043B10853B2F743B30253B4FD2201
:1007BB00020A2AE493A3F8E493A34003F68001F220
:1007CB0008DFF48029E493A3F85407240CC8C3333F
:1007DB00C4540F4420C8834004F456800146F6DF0E
:1007EB00E4800B0102040810204080900D6FE47E22
:1007FB00019360BCA3FF543F30E509541FFEE49303
:10080B00A360010ECF54C025E060A840B8E493A3C9
:10081B00FAE493A3F8E493A3C8C582C8CAC583CAF4
:10082B00F0A3C8C582C8CAC583CADFE9DEE780BEAC
:010D8400006E
:10027B00BC000BBE0029EF8DF084FFADF022E4CC67
:10028B00F875F008EF2FFFEE33FEEC33FCEE9DEC30
:10029B00984005FCEE9DFE0FD5F0E9E4CEFD22ED76
:1002AB00F8F5F0EE8420D21CFEADF075F008EF2FC0
:1002BB00FFED33FD4007985006D5F0F222C398FDB1
:0502CB000FD5F0EA224E
:1002D00075F008758200EF2FFFEE33FECD33CDCCE5
:1002E00033CCC58233C5829BED9AEC99E582984068
:1002F0000CF582EE9BFEED9AFDEC99FC0FD5F0D645
:10030000E4CEFBE4CDFAE4CCF9A88222B800C1B96E
:100310000059BA002DEC8BF084CFCECDFCE5F0CBAC
:10032000F97818EF2FFFEE33FEED33FDEC33FCEBE5
:1003300033FB10D703994004EB99FB0FD8E5E4F9A0
:10034000FA227818EF2FFFEE33FEED33FDEC33FC8D
:10035000C933C910D7059BE99A4007EC9BFCE99A81
:10036000F90FD8E0E4C9FAE4CCFB2275F010EF2FC6
:10037000FFEE33FEED33FDCC33CCC833C810D707C6
:100380009BEC9AE899400AED9BFDEC9AFCE899F801
:0E0390000FD5F0DAE4CDFBE4CCFAE4C8F92294
:10039E00E8600FEFC333FFEE33FEED33FDEC33FCBD
:0303AE00D8F12261
:1003B100D083D082F8E4937012740193700DA3A3DB
:1003C10093F8740193F5828883E4737402936860EF
:0603D100EFA3A3A380DFEF
:0603D7008A838982E473B1
:1003DD00EC8EF0A4CCC5F0CCCDF8EFA4CEC5F02DAD
:1003ED00FDE43CFCE8A42EC8C5F03DFDE43CFCEF6B
:0D03FD00A4FFE5F028FEE43DFDE43CFC22F9
:00000001FF
