:030000000206589D
:0C065800787FE4F6D8FD75817702069FDC
:0D0D1100759501438E027559017558002239
:03008B00020D5013
:070D5000538FEF75590132CA
:100C3B00538FF7538FEF538FFB538FFD538FFE75EE
:090C4B008664439C04438F0822D7
:1008D600A2AF9200C2AF75C7AA75C755439F01A2C2
:1008E6000092AF75A60475A70075AE0F75AFE1A2AD
:1008F600AF9200C2AF75C7AA75C75543A504A2003B
:1009060092AFA2AF9200C2AF75C7AA75C75543A4EE
:1009160001A20092AFE59F20E6FBA2AF9200C2AF14
:1009260075C7AA75C75553A5FBA20092AFA2AF9291
:1009360000C2AF75C7AA75C755539FFEA20092AFF6
:01094600228E
:100ABB001208D675C7AA75C75575AA07A2AF9200BB
:100ACB00C2AF75C7AA75C75543AA40A20092AFE53E
:100ADB00AA44BFFFEF64FF60F6D2AFA2AF9200C291
:0F0AEB00AF75C7AA75C75543AA80A20092AF2264
:070D5700120B5B120C852258
:070D5E00120C6D120BA5221F
:100947007F647E00120C54120ABB120D11120BE3C6
:10095700120BC4120C3B120CE5120003120BA5A2DA
:10096700AF9200C2AF75C7AA75C75543AA40A20088
:1009770092AFE5596022755900A2AF9200C2AF75D8
:10098700C7AA75C75543AA40A20092AF12040A121C
:100997000767120861120B83120D48EF6005438742
:0909A7000280CF43870180CA22BF
:0A0D34008F70AF701570EF70F92298
:100CC5007FFA120D347FFA120D347FFA120D342299
:100C54008E6A8F6BE56B156BAE6A7002156AFFEFD7
:090C64004E6005120CC580EC2263
:0C0AFA000A113F065B4F666D7D277F6F81
:0300830002008EEA
:10008E00C0E0C083C082C0D075D000C000C007538E
:10009E00C4EFC280C281C284C290C292C295004394
:1000AE00B10153B2FE43B10253B2FD43B11053B28C
:1000BE00EF43B30153B4FE43B30453B4FB43B32035
:1000CE0053B4DFE50D1203B100EC00011E01016A0D
:1000DE000201B60301F40402320500000261C2807F
:1000EE00E50E30E708D29053B3FE43B401E50F306E
:1000FE00E708D29253B3FB43B404E51030E708D2BD
:10010E009553B3DF43B42053B1FE43B201020261F3
:10011E00C284E50E30E008D28153B1FD43B202E550
:10012E000E30E108D28053B1FE43B201E50E30E24B
:10013E0008D29053B3FE43B401E50E30E308D292D9
:10014E0053B3FB43B404E50E30E408D29553B3DF4A
:10015E0043B42053B1EF43B210020261D284E50FD3
:10016E0030E008C28153B1FD43B202E50F30E10821
:10017E00C28053B1FE43B201E50F30E208C2905384
:10018E00B3FE43B401E50F30E308C29253B3FB4311
:10019E00B404E50F30E408C29553B3DF43B42053E3
:1001AE00B1EF43B210020261C281E50E30E508D212
:1001BE008053B1FE43B201E50E30E608D29053B340
:1001CE00FE43B401E50F30E508D29253B3FB43B4BE
:1001DE0004E50F30E608D29553B3DF43B42053B194
:1001EE00FD43B202806DD281E51030E008C280532B
:1001FE00B1FE43B201E51030E108C29053B3FE43A5
:10020E00B401E51030E208C29253B3FB43B404E5E7
:10021E001030E308C29553B3DF43B42053B1FD430E
:10022E00B202802FD280E51030E408C29053B3FEA4
:10023E0043B401E51030E508C29253B3FB43B40456
:10024E00E51030E608C29553B3DF43B42053B1FE38
:10025E0043B201050DAF0DEFD394054003750D00AC
:0D026E00D007D000D0D0D082D083D0E032B5
:100B8300E50C450B6007AA0BA90C1203D7E50A6015
:100B930010750A00E50945086007AA08A9091203A8
:020BA300D72257
:100C9B008E5A8F5B8C5C8D5D855A08855B09855CF4
:050CAB000B855D0C2229
:100CB0008E6C8F6DE509B56D09E508B56C047F0193
:050CC00080027F00220C
:100B5B0043B10153B2FE43B10253B2FD43B1105343
:100B6B00B2EF43B30153B4FE43B30453B4FB43B3EB
:080B7B002053B4DF53C4F7223C
:100C6D0043C40143C40253C4FB75C6F275C5FA43B0
:080C7D009C02D2AF43C408221F
:1000030053B3DF43B42053B3FB43B40453B3FE43AE
:10001300B40153B1FE43B20153B1FD43B20253B134
:10002300EF43B210D295D292D290D280D281D284B1
:1000330053B1DF53B1DF43B22053B1BF43B2405397
:10004300B17F43B280C285C286C287750A01750833
:1000530000750900750B00750C00750D00750EFF1A
:10006300750FFF7510FF43C40143C40253C4FB75EE
:0E007300C6F275C5FA439C02D2AF43C4082200
:030B060001520099
:0E0CF500E552D3940040047F0180027F00226C
:1005A100E55264046003020657AF511551EF600331
:1005B100020657E5531203B105E10005EA0105F30F
:1005C1000205FC03060504060E05061706062007AC
:1005D100062908063209063B0A06440B0000064DAF
:1005E100D28775510A75530122C28775510A755315
:1005F1000222D28775510A75530322C28775510AA7
:1006010075530422D28775510A75530522C2877525
:10061100511E75530622D28675510A75530722C29F
:100621008675510A75530822D28675510A75530988
:1006310022C28675510A75530A22D28675510A75EE
:10064100530B22C28675511E75530022C287C28682
:0706510075530075510022F2
:1006E4008F71120D03EF700E120D3EEF7008E5715D
:1006F400B40103120D65120CF5EF700CE571640280
:100704007060755201D28522E5716401704605520C
:10071400AF52EFD394044003755201C285C287C21D
:1007240086E5521203B1073A01073D020740030769
:1007340043040000074ED28522D28722D28622C2E9
:1007440087C28675530075510022755200C285C256
:1007540087C28622E571B40209755200C285C28738
:03076400C2862228
:100C01008F5E8D5F8B60756100E55E1203B10C161E
:0D0C11000000000C1BAF5F1206E4AF612273
:100A7200120D03EF7010120D3EEF700A120CF5EF1B
:100A82007004120D57220554AF54EFD394634025DE
:100A9200755400120D03EF60190555AF55EFD3944D
:100AA20003400F755500E55070047F0180027F00FE
:090AB2008F50750A011205A12202
:1004E200120D03EF605CE5506058120D6E7E008EB7
:1004F2001E8F1FAE1EAF1F7C007D6412027B741123
:100502002FF8E6FF8F1BAE1EAF1F7C007D64120228
:100512007B8C1E8D1FAE1EAF1F7C007D0A12027BDC
:1005220074112FF8E6FF8F1CAE1EAF1F7C007D0AF0
:1005320012027BAF0574112FF8E6FFEF4480F51D20
:100542008053120D6B7E008E1E8F1FAE1EAF1F7C5E
:10055200007D6412027B74112FF8E6FF8F1BAE1E22
:10056200AF1F7C007D6412027B8C1E8D1FAE1EAFFE
:100572001F7C007D0A12027B74112FF8E6FF8F1C8C
:10058200AE1EAF1F7C007D0A12027BAF0574112FD5
:0F059200F8E6FF8F1D851B0E851C0F851D10229F
:100BA5007554007555007550007E0C7F01120D1EA1
:0F0BB5007E047FE27C0A7D72120C9B750A01227E
:1009B000E540600415408003754101A294E433FFD3
:1009C0008F72E57264016038E547700475478222D2
:1009D000E5476480703CE54665726036857246E5A1
:1009E00041B54604E540700B8546417548017540A8
:1009F0001E80067548027541017545057544002243
:100A0000E5466401600C7547007545007546017543
:030A100048002279
:10086100E547547FFFEF60021547E545547FFFEFF1
:10087100600215451209B0E54664016057E545542B
:100881007FFFEF704FE545701F7545E4E543454235
:10089100600F8543828542837B00AD48AF461203DA
:1008A100DB75480375440322754599E544C394FFFC
:1008B10050020544E5434542601AE5441313543F91
:1008C100FB854382854283AD48AF461203DBEF606F
:0508D10003754804223C
:0B0D1E008E6E8F6F856E42856F432242
:100BC40043B31053B4EF7547007545007540007585
:0F0BD400440075480075460175420075430022C4
:100B09000C24A4968E88837E7B797670592C0C30C0
:0F0B1900A48D837B75706D6A665F562C01210079
:05008600AE3CAF3D227D
:030D6B00AF232291
:030D6E00AF3E2273
:0E0D0300E53ED3945A40047F0180027F002217
:0A0D3E003097047F0180027F00223D
:060D6500D2B0753F002230
:100A13008F73E5731203B10A42000A46010A4A02C0
:100A23000A4E030A52040A56050A5A060A5E070AC0
:100A330062080A66090A6A0A0A6E0B00000A7175DF
:100A430023642275235A2275235022752346227567
:100A5300233C22752332227523282275231E2275F7
:0F0A630023142275230A227523052275230022EE
:1007E500120D03EF6039757400E574C3940C50184D
:1007F500120086AD7474242DF8E6FD7C00C3EF9DD0
:10080500EE9C5004057480E1AF7474242FF8E6FF64
:10081500E521C39F5045AF74120A13852321227524
:100825007400E574C3940C5018120086AD747430CE
:100835002DF8E6FD7C00C3EF9DEE9C500405748009
:10084500E1AF7474242FF8E6FFE521C39F5004E55A
:0C085500217008AF74120A1385232122C1
:1007670030B00BE53F7005753F018002C2B0AF2284
:100777000522EFD3940A40657522007F07120B2CE0
:100787007C007DB41203DDC004C005C006C0077F2E
:1007970008120B2CAB07AA06E4F9F8D007D006D04D
:1007A70005D00412030C8E3C8F3D1207E57F06121D
:1007B7000B2C7C007D481203DDC004C005C006C0B9
:1007C700077F08120B2CAB07AA06E4F9F8D007D06D
:0E07D70006D005D00412030CEF2408F53E22D4
:100BE30053ACFE43AD01C2B043B38053B47F753CF5
:0E0BF30000753D00752300753E007522FE2240
:0B0D29008F75E575B40103120D652203
:100C1E008F628D638B64756500E5621203B10C33D0
:0D0C2E000000000C38AF63120D29AF6522E5
:100CD500120D03EF7006120D3EEF6003120D5E223A
:01008100225C
:100C85007E0C7F1E120D1E7E007F817C0C7DD51291
:060C95000C9B750A012210
:080D48007E007F81120CB02235
:030B280001490080
:100B2C008F76E5761203B10B45060B40070B4A088E
:100B3C0000000B4FAE4AAF4B22AE4CAF4D22AE4E27
:0F0B4C00AF4F22E47E007F0022E47E007F002274
:10040A007566007567007568007569000549AF492A
:10041A00EFD3940550030204E175490053E8F04311
:10042A00E80743B30253B4FD75F60043F68043E18F
:10043A0001C2EFD2EE30EFFDAFC3E4FCFDFE78045B
:10044A0012039EA804A905AA06AB07AFC2E4FCFDE5
:10045A00FEEB4FFFEA4EFEE94DFDE84CFC8E4A8F5B
:10046A004B53E1FE53E8F043E80643B10853B2F7B1
:10047A0075F60043F64043E101C2EFD2EE30EFFDDC
:10048A00AFC37E00EF75F010A4FFAEF0ADC27C00E2
:10049A00EE4CF54CEF4DF54D53E1FE43E80853E8B9
:1004AA00F843E101C2EFD2EE30EFFDAFC3E4FCFD49
:1004BA00FE780412039EA804A905AA06AB07AFC2D8
:1004CA00E4FCFDFEEB4FFFEA4EFEE94DFDE84CFC75
:0804DA008E4E8F4F53E1FE220C
:100CE50075770043B10853B2F743B30253B4FD22FD
:10066400020947E493A3F8E493A34003F68001F25C
:1006740008DFF48029E493A3F85407240CC8C33397
:10068400C4540F4420C8834004F456800146F6DF66
:10069400E4800B0102040810204080900AFAE47EF2
:1006A400019360BCA3FF543F30E509541FFEE4935B
:1006B400A360010ECF54C025E060A840B8E493A322
:1006C400FAE493A3F8E493A3C8C582C8CAC583CA4D
:1006D400F0A3C8C582C8CAC583CADFE9DEE780BE05
:010B2B0000C9
:10027B00BC000BBE0029EF8DF084FFADF022E4CC67
:10028B00F875F008EF2FFFEE33FEEC33FCEE9DEC30
:10029B00984005FCEE9DFE0FD5F0E9E4CEFD22ED76
:1002AB00F8F5F0EE8420D21CFEADF075F008EF2FC0
:1002BB00FFED33FD4007985006D5F0F222C398FDB1
:0502CB000FD5F0EA224E
:1002D00075F008758200EF2FFFEE33FECD33CDCCE5
:1002E00033CCC58233C5829BED9AEC99E582984068
:1002F0000CF582EE9BFEED9AFDEC99FC0FD5F0D645
:10030000E4CEFBE4CDFAE4CCF9A88222B800C1B96E
:100310000059BA002DEC8BF084CFCECDFCE5F0CBAC
:10032000F97818EF2FFFEE33FEED33FDEC33FCEBE5
:1003300033FB10D703994004EB99FB0FD8E5E4F9A0
:10034000FA227818EF2FFFEE33FEED33FDEC33FC8D
:10035000C933C910D7059BE99A4007EC9BFCE99A81
:10036000F90FD8E0E4C9FAE4CCFB2275F010EF2FC6
:10037000FFEE33FEED33FDCC33CCC833C810D707C6
:100380009BEC9AE899400AED9BFDEC9AFCE899F801
:0E0390000FD5F0DAE4CDFBE4CCFAE4C8F92294
:10039E00E8600FEFC333FFEE33FEED33FDEC33FCBD
:0303AE00D8F12261
:1003B100D083D082F8E4937012740193700DA3A3DB
:1003C10093F8740193F5828883E4737402936860EF
:0603D100EFA3A3A380DFEF
:0603D7008A838982E473B1
:1003DD00EC8EF0A4CCC5F0CCCDF8EFA4CEC5F02DAD
:1003ED00FDE43CFCE8A42EC8C5F03DFDE43CFCEF6B
:0D03FD00A4FFE5F028FEE43DFDE43CFC22F9
:00000001FF
