:0300000002064EA7
:0C064E00787FE4F6D8FD75815C0206950B
:0D0B3500759501438E02754001753F002249
:03000B00020B588D
:0A0B5800853D8C853E8A7540013210
:100A490053890F438910538EF7753D3A753E978543
:0C0A59003D8C853E8AD2A9D2AFD28C22FF
:010B9500223D
:070B7600120969120A962220
:070B7D00120A7E1209B322E7
:100905007F647E00120A65120B95120B351209F1F0
:100915001209D2120A49120B0912075D1209B3E531
:100925004060FC7540001204021207DB12000E1233
:05093500099180EB2296
:0A0B62008F57AF571557EF70F922B7
:100AE9007FFA120B627FFA120B627FFA120B6222F3
:100A65008E518F52E5521552AE5170021551FFEF5E
:090A75004E6005120AE980EC2232
:0C0AD6000A113F065B4F666D7D277F6FA5
:03008300020086F2
:10008600C0E0C083C082C0D075D000C000C0075396
:10009600C4EFC280C281C284C290C292C29500439C
:1000A600B10153B2FE43B10253B2FD43B11053B294
:1000B600EF43B30153B4FE43B30453B4FB43B3203D
:1000C60053B4DFE50D1203A900E400011601016235
:1000D6000201AE0301EC04022A0500000259C280A7
:1000E600E50E30E708D29053B3FE43B401E50F3076
:1000F600E708D29253B3FB43B404E51030E708D2C5
:100106009553B3DF43B42053B1FE43B20102025903
:10011600C284E50E30E008D28153B1FD43B202E558
:100126000E30E108D28053B1FE43B201E50E30E253
:1001360008D29053B3FE43B401E50E30E308D292E1
:1001460053B3FB43B404E50E30E408D29553B3DF52
:1001560043B42053B1EF43B210020259D284E50FE3
:1001660030E008C28153B1FD43B202E50F30E10829
:10017600C28053B1FE43B201E50F30E208C290538C
:10018600B3FE43B401E50F30E308C29253B3FB4319
:10019600B404E50F30E408C29553B3DF43B42053EB
:1001A600B1EF43B210020259C281E50E30E508D222
:1001B6008053B1FE43B201E50E30E608D29053B348
:1001C600FE43B401E50F30E508D29253B3FB43B4C6
:1001D60004E50F30E608D29553B3DF43B42053B19C
:1001E600FD43B202806DD281E51030E008C2805333
:1001F600B1FE43B201E51030E108C29053B3FE43AD
:10020600B401E51030E208C29253B3FB43B404E5EF
:100216001030E308C29553B3DF43B42053B1FD4316
:10022600B202802FD280E51030E408C29053B3FEAC
:1002360043B401E51030E508C29253B3FB43B4045E
:10024600E51030E608C29553B3DF43B42053B1FE40
:1002560043B201050DAF0DEFD394054003750D00B4
:0D026600D007D000D0D0D082D083D0E032BD
:10099100E50C450B6007AA0BA90C1203CFE50A6011
:1009A10010750A00E50945086007AA08A90912039C
:0209B100CF2253
:100AAC008E418F428C438D44854108854209854394
:050ABC000B85440C2233
:100AC1008E538F54E509B55409E508B553047F01E8
:050AD10080027F0022FD
:1009690043B10153B2FE43B10253B2FD43B1105337
:10097900B2EF43B30153B4FE43B30453B4FB43B3DF
:080989002053B4DF53C4F72230
:100A7E0043C40143C40253C4FB75C6F275C5FA43A1
:080A8E009C02D2AF43C4082210
:10075D0053B3DF43B42053B3FB43B40453B3FE434D
:10076D00B40153B1FE43B20153B1FD43B20253B1D3
:10077D00EF43B210D295D292D290D280D281D28450
:10078D0053B1DF53B1DF43B22053B1BF43B2405336
:10079D00B17F43B280C285C286C287750A017508D2
:1007AD0000750900750B00750C00750D00750EFFB9
:1007BD00750FFF7510FF43C40143C40253C4FB758D
:0E07CD00C6F275C5FA439C02D2AF43C408229F
:030AE200013300DD
:0E0B1900E533D3940040047F0180027F002268
:10059700E5336404600302064DAF321532EF6003A2
:1005A70002064DE5341203A905D70005E00105E968
:1005B7000205F20305FB04060405060D06061607E9
:1005C700061F0806280906310A063A0B00000643EB
:1005D700D28775320A75340122C28775320A75349B
:1005E7000222D28775320A75340322C28775320A0E
:1005F70075340422D28775320A75340522C287758D
:10060700321E75340622D28675320A75340722C225
:100617008675320A75340822D28675320A7534090E
:1006270022C28675320A75340A22D28675320A7555
:10063700340B22C28675321E75340022C287C286E9
:07064700753400753200223A
:1006DA008F58120B27EF700E120B6CEF7008E5584B
:1006EA00B40103120B84120B19EF700CE558640263
:1006FA007060753301D28522E5586401704605336E
:10070A00AF33EFD394044003753301C285C287C265
:10071A0086E5331203A907300107330207360307B8
:10072A00390400000744D28522D28722D28622C207
:10073A0087C28675340075320022753300C285C2BD
:10074A0087C28622E558B40209753300C285C2877A
:03075A00C2862232
:100A0F008F458D468B47754800E5451203A90A248B
:0D0A1F000000000A29AF461206DAAF482297
:1008BC00120B27EF7010120B6CEF700A120B19EF62
:1008CC007004120B76220535AF35EFD394634025B7
:1008DC00753500120B27EF60190536AF36EFD39440
:1008EC0003400F753600E53170047F0180027F00F4
:0908FC008F31750A0112059722E3
:1004DA00120B27EF605CE5316058120B927E008E9A
:1004EA001E8F1FAE1EAF1F7C007D64120273741133
:1004FA002FF8E6FF8F1BAE1EAF1F7C007D64120231
:10050A00738C1E8D1FAE1EAF1F7C007D0A120273F4
:10051A0074112FF8E6FF8F1CAE1EAF1F7C007D0AF8
:10052A00120273AF0574112FF8E6FFEF4480F51D30
:10053A008051120B8A8E1E8F1FAE1EAF1F7C007D4C
:10054A006412027374112FF8E6FF8F1BAE1EAF1FE1
:10055A007C007D641202738C1E8D1FAE1EAF1F7C41
:10056A00007D0A12027374112FF8E6FF8F1CAE1E6B
:10057A00AF1F7C007D0A120273AF0574112FF8E6D3
:0D058A00FF8F1D851B0E851C0F851D102287
:1009B3007535007536007531007E0A7F0F120B42C4
:0F09C3007E047FDA7C087DBC120AAC750A012223
:080003007E047FDA120AC1221B
:10085900E521600415218003752201A294E433FF88
:100869008F59E55964016038E5287004752882229A
:10087900E5286480703CE52765596036855927E588
:1008890022B52704E521700B8527227529017521D9
:100899001E80067529027522017526057525002217
:1008A900E5276401600C7528007526007527017518
:0308B900290022F1
:10000E00E528547FFFEF60021528E526547FFFEFA9
:10001E0060021526120859E52764016057E526543B
:10002E007FFFEF704FE526701F7526E4E52445230C
:10003E00600F8524828523837B00AD29AF271203B1
:10004E00D375290375250322752699E525C394FFDB
:10005E0050020525E5244523601AE5251313543F68
:10006E00FB852482852383AD29AF271203D3EF604E
:05007E000375290422B6
:0B0B42008E558F5685552385562422C2
:1009D20043B31053B4EF75280075260075210075D6
:0F09E20025007529007527017523007524002253
:050B8A00AE39AF3A2274
:030B8F00AF38225A
:030B9200AF3B2254
:0E0B2700E53BD3945A40047F0180027F0022F8
:0A0B6C003097047F0180027F002211
:060B8400D2B0753C002216
:010B9600223C
:1007DB0030B00BE53C7005753C018002C2B0AF3701
:1007EB000537EFD3940A40657537007F0712093A36
:1007FB007C007DB41203D5C004C005C006C0077FC2
:10080B000812093AAB07AA06E4F9F8D007D006D0CC
:10081B0005D0041203048E398F3A120B967F061201
:10082B00093A7C007D481203D5C004C005C006C040
:10083B00077F0812093AAB07AA06E4F9F8D007D0EC
:0E084B0006D005D004120304EF2408F53B226A
:1009F10053ACFE43AD01C2B043B38053B47F7539EC
:0E0A010000753A00753800753B007537FE220F
:0B0B4D008F5AE55AB40103120B8422FA
:100A2C008F498D4A8B4B754C00E5491203A90A413D
:0D0A3C000000000A46AF4A120B4DAF4C22DD
:100AF900120B27EF7006120B6CEF6003120B7D22AD
:010B9700223B
:100A96007E0A7F2C120B427E0B7F977C0A7DF91211
:060AA6000AAC750A0122F2
:030AE500012A00E3
:10093A008F5BE55B1203A9095306094E070958089C
:10094A000000095DAE2BAF2C22AE2DAF2E22AE2FAA
:0F095A00AF3022E47E007F0022E47E007F002287
:10040200754D00754E00754F00755000052AAF2AD4
:10041200EFD3940550030204D9752A0053E8F04340
:10042200E80743B30253B4FD75F60043F68043E197
:1004320001C2EFD2EE30EFFDAFC3E4FCFDFE780463
:10044200120396A804A905AA06AB07AFC2E4FCFDF5
:10045200FEEB4FFFEA4EFEE94DFDE84CFC8E2B8F82
:100462002C53E1FE53E8F043E80643B10853B2F7D8
:1004720075F60043F64043E101C2EFD2EE30EFFDE4
:10048200AFC37E00EF75F010A4FFAEF0ADC27C00EA
:10049200EE4CF52DEF4DF52E53E1FE43E80853E8FF
:1004A200F843E101C2EFD2EE30EFFDAFC3E4FCFD51
:1004B200FE7804120396A804A905AA06AB07AFC2E8
:1004C200E4FCFDFEEB4FFFEA4EFEE94DFDE84CFC7D
:0804D2008E2F8F3053E1FE2252
:010B9800223A
:100B0900755C0043B10853B2F743B30253B4FD22F5
:10065A00020905E493A3F8E493A34003F68001F2A8
:10066A0008DFF48029E493A3F85407240CC8C333A1
:10067A00C4540F4420C8834004F456800146F6DF70
:10068A00E4800B0102040810204080900AD6E47E20
:10069A00019360BCA3FF543F30E509541FFEE49365
:1006AA00A360010ECF54C025E060A840B8E493A32C
:1006BA00FAE493A3F8E493A3C8C582C8CAC583CA57
:1006CA00F0A3C8C582C8CAC583CADFE9DEE780BE0F
:010AE800000D
:10027300BC000BBE0029EF8DF084FFADF022E4CC6F
:10028300F875F008EF2FFFEE33FEEC33FCEE9DEC38
:10029300984005FCEE9DFE0FD5F0E9E4CEFD22ED7E
:1002A300F8F5F0EE8420D21CFEADF075F008EF2FC8
:1002B300FFED33FD4007985006D5F0F222C398FDB9
:0502C3000FD5F0EA2256
:1002C80075F008758200EF2FFFEE33FECD33CDCCED
:1002D80033CCC58233C5829BED9AEC99E582984070
:1002E8000CF582EE9BFEED9AFDEC99FC0FD5F0D64D
:1002F800E4CEFBE4CDFAE4CCF9A88222B800C1B977
:100308000059BA002DEC8BF084CFCECDFCE5F0CBB4
:10031800F97818EF2FFFEE33FEED33FDEC33FCEBED
:1003280033FB10D703994004EB99FB0FD8E5E4F9A8
:10033800FA227818EF2FFFEE33FEED33FDEC33FC95
:10034800C933C910D7059BE99A4007EC9BFCE99A89
:10035800F90FD8E0E4C9FAE4CCFB2275F010EF2FCE
:10036800FFEE33FEED33FDCC33CCC833C810D707CE
:100378009BEC9AE899400AED9BFDEC9AFCE899F809
:0E0388000FD5F0DAE4CDFBE4CCFAE4C8F9229C
:10039600E8600FEFC333FFEE33FEED33FDEC33FCC5
:0303A600D8F12269
:1003A900D083D082F8E4937012740193700DA3A3E3
:1003B90093F8740193F5828883E4737402936860F7
:0603C900EFA3A3A380DFF7
:0603CF008A838982E473B9
:1003D500EC8EF0A4CCC5F0CCCDF8EFA4CEC5F02DB5
:1003E500FDE43CFCE8A42EC8C5F03DFDE43CFCEF73
:0D03F500A4FFE5F028FEE43DFDE43CFC2201
:00000001FF
