:030000000207B53F
:0C07B500787FE4F6D8FD7581610207FC36
:0D0E4300759501438E027543017542002232
:03008B00020E82E0
:070E8200538FEF75430132AD
:100D4600538FF7538FEF538FFB538FFD538FFE75E2
:090D5600869C439C04438F082293
:1009BF00A2AF9200C2AF75C7AA75C755439F01A2D8
:1009CF000092AF75A60475A70075AE0F75AFE1A2C3
:1009DF00AF9200C2AF75C7AA75C75543A504A20051
:1009EF0092AFA2AF9200C2AF75C7AA75C75543A405
:1009FF0001A20092AFE59F20E6FBA2AF9200C2AF2B
:100A0F0075C7AA75C75553A5FBA20092AFA2AF92A7
:100A1F0000C2AF75C7AA75C755539FFEA20092AF0C
:010A2F0022A4
:100BC2001209BF75C7AA75C75575AA07A2AF9200C9
:100BD200C2AF75C7AA75C75543AA40A20092AFE536
:100BE200AA44BFFFEF64FF60F6D2AFA2AF9200C289
:0F0BF200AF75C7AA75C75543AA80A20092AF225C
:070E8900120C60120DA622FD
:070E9000120D78120CEA229A
:100A30007F647E00120D5F120BC2120E43120D284E
:100A4000120D09120D46120E17120003120CEAA223
:100A5000AF9200C2AF75C7AA75C75543AA40A2009E
:100A600092AFE5436022754300A2AF9200C2AF751A
:100A7000C7AA75C75543AA40A20092AF12040A1232
:100A800008CC12094A120C88120E7AEF60054387CF
:090A90000280CF43870180CA22D5
:0A0E66008F5AAF5A155AEF70F922A7
:100DF7007FFA120E667FFA120E667FFA120E6622CD
:100D5F008E548F55E5551555AE5470021554FFEF4F
:090D6F004E6005120DF780EC2224
:0C0D90000A113F065B4F666D7D277F6FE8
:0300830002008EEA
:10008E00C0E0C083C082C0D075D000C000C007538E
:10009E00C4EFC280C281C284C290C292C295004394
:1000AE00B10153B2FE43B10253B2FD43B11053B28C
:1000BE00EF43B30153B4FE43B30453B4FB43B32035
:1000CE0053B4DFE50D1203B100EC00011E01016A0D
:1000DE000201B60301F40402320500000261C2807F
:1000EE00E50E30E708D29053B3FE43B401E50F306E
:1000FE00E708D29253B3FB43B404E51030E708D2BD
:10010E009553B3DF43B42053B1FE43B201020261F3
:10011E00C284E50E30E008D28153B1FD43B202E550
:10012E000E30E108D28053B1FE43B201E50E30E24B
:10013E0008D29053B3FE43B401E50E30E308D292D9
:10014E0053B3FB43B404E50E30E408D29553B3DF4A
:10015E0043B42053B1EF43B210020261D284E50FD3
:10016E0030E008C28153B1FD43B202E50F30E10821
:10017E00C28053B1FE43B201E50F30E208C2905384
:10018E00B3FE43B401E50F30E308C29253B3FB4311
:10019E00B404E50F30E408C29553B3DF43B42053E3
:1001AE00B1EF43B210020261C281E50E30E508D212
:1001BE008053B1FE43B201E50E30E608D29053B340
:1001CE00FE43B401E50F30E508D29253B3FB43B4BE
:1001DE0004E50F30E608D29553B3DF43B42053B194
:1001EE00FD43B202806DD281E51030E008C280532B
:1001FE00B1FE43B201E51030E108C29053B3FE43A5
:10020E00B401E51030E208C29253B3FB43B404E5E7
:10021E001030E308C29553B3DF43B42053B1FD430E
:10022E00B202802FD280E51030E408C29053B3FEA4
:10023E0043B401E51030E508C29253B3FB43B40456
:10024E00E51030E608C29553B3DF43B42053B1FE38
:10025E0043B201050DAF0DEFD394054003750D00AC
:0D026E00D007D000D0D0D082D083D0E032B5
:100C8800E50C450B6007AA0BA90C1203D7E50A600F
:100C980010750A00E50945086007AA08A9091203A2
:020CA800D72251
:100DBC008E448F458C468D4785440885450985466C
:050DCC000B85470C221D
:100DD1008E568F57E509B55709E508B556047F01C9
:050DE10080027F0022EA
:100C600043B10153B2FE43B10253B2FD43B110533D
:100C7000B2EF43B30153B4FE43B30453B4FB43B3E5
:080C80002053B4DF53C4F72236
:100D780043C40143C40253C4FB75C6F275C5FA43A4
:080D88009C02D2AF43C4082213
:1000030053B3DF43B42053B3FB43B40453B3FE43AE
:10001300B40153B1FE43B20153B1FD43B20253B134
:10002300EF43B210D295D292D290D280D281D284B1
:1000330053B1DF53B1DF43B22053B1BF43B2405397
:10004300B17F43B280C285C286C287750A01750833
:1000530000750900750B00750C00750D00750EFF1A
:10006300750FFF7510FF43C40143C40253C4FB75EE
:0E007300C6F275C5FA439C02D2AF43C4082200
:030D9C00012C0027
:0E0E2700E52CD3940040047F0180027F00225E
:1005A100E52C64046003020657AF2B152BEF6003A3
:1005B100020657E52D1203B105E10005EA0105F335
:1005C1000205FC03060504060E05061706062007AC
:1005D100062908063209063B0A06440B0000064DAF
:1005E100D287752B0A752D0122C287752B0A752DAD
:1005F1000222D287752B0A752D0322C287752B0A19
:10060100752D0422D287752B0A752D0522C2877597
:100611002B1E752D0622D286752B0A752D0722C237
:1006210086752B0A752D0822D286752B0A752D0920
:1006310022C286752B0A752D0A22D286752B0A7560
:100641002D0B22C286752B1E752D0022C287C286F4
:07065100752D00752B00223E
:10065800E52C6405600302070CAF2F152FEF60032C
:1006680002070CE5301203B106980006A10106AA9C
:100678000206B30306BC0406C50506CE0606D70760
:1006880006E00806E90906F20A06FB0B0000070463
:10069800D287752F3C75300122C287752F3C753083
:1006A8000222D287752F3C75300322C287752F3CF2
:1006B80075300422D287752F3C75300522C28775A4
:1006C8002F3C75300622D287752F0A75300722C253
:1006D80087752F0A75300822D287752F0A75300959
:1006E80022C287752F0A75300A22D287752F0A759C
:1006F800300B22C287752F3C75300022C2877530B7
:0507080000752F002226
:10070D008F5B120E35EF700E120E70EF7008E55BF9
:10071D00B40103120DE6120086C3EF942CEE940182
:10072D005010120E35EF700A752C00C285C287C2AB
:10073D008622120E27EF700CE55B64027069752C32
:10074D0001D28522E55B6401704F052CAF2CEFD3F0
:10075D0094054003752C01C285C287C286E52C1213
:10076D0003B1078201078502078803078B040796EB
:10077D00050000079CD28522D28722D28622C2870D
:10078D00C286752D00752B0022C28675300022752C
:10079D002C00C285C287C28622E55BB40209752C86
:0807AD0000C285C287C286224A
:100CAA008F488D498B4A754B00854A4AE54812039D
:100CBA00B10CC20000000CC7AF4912070DAF4B229E
:100A9900120E35EF7010120E70EF700A120E27EF5A
:100AA9007004120E8922052EAF2EEFD394634025D0
:100AB900752E00120E35EF60190531AF31EFD39461
:100AC90003400F753100E52A70047F0180027F0021
:100AD9008F2A750A01120086C3EF942CEE940150F7
:100AE9000F120E35EF7009752C00C285C287C286B8
:070AF9001205A112065822AC
:1004E200120E35EF605CE52A6058120E9A7E008E7D
:1004F2001E8F1FAE1EAF1F7C007D6412027B741123
:100502002FF8E6FF8F1BAE1EAF1F7C007D64120228
:100512007B8C1E8D1FAE1EAF1F7C007D0A12027BDC
:1005220074112FF8E6FF8F1CAE1EAF1F7C007D0AF0
:1005320012027BAF0574112FF8E6FFEF4480F51D20
:100542008053120E977E008E1E8F1FAE1EAF1F7C31
:10055200007D6412027B74112FF8E6FF8F1BAE1E22
:10056200AF1F7C007D6412027B8C1E8D1FAE1EAFFE
:100572001F7C007D0A12027B74112FF8E6FF8F1C8C
:10058200AE1EAF1F7C007D0A12027BAF0574112FD5
:0F059200F8E6FF8F1D851B0E851C0F851D10229F
:100CEA00752E00753100752A007E0C7FAA120E50EF
:0F0CFA007E047FE27C0A7D99120DBC750A0122EF
:100B0000E521600415218003752201A294E433FFDE
:100B10008F5CE55C64016038E528700475288222EA
:100B2000E5286480703CE527655C6036855C27E5D8
:100B300022B52704E521700B85272275290175212F
:100B40001E8006752902752201752605752500226D
:100B5000E5276401600C752800752600752701756E
:030B600029002247
:10094A00E528547FFFEF60021528E526547FFFEF64
:10095A0060021526120B00E52764016057E526544C
:10096A007FFFEF704FE526701F7526E4E5244523C7
:10097A00600F8524828523837B00AD29AF2712036C
:10098A00DB75290375250322752699E525C394FF8E
:10099A0050020525E5244523601AE5251313543F23
:1009AA00FB852482852383AD29AF271203DBEF6001
:0509BA00037529042271
:0B0E50008E588F5985582385592422A5
:100D090043B31053B4EF752800752600752100759B
:0F0D190025007529007527017523007524002218
:100C010001A4019A019001880183017E017B017990
:100C1100017601700159012C0184017C0172016D81
:100C21000168015E0154014A014001360131012C84
:030D9F000132FF1F
:05008600AE35AF36228B
:030E9700AF342253
:030E9A00AF37224D
:0E0E3500E537D3945A40047F0180027F0022EB
:0A0E70003097047F0180027F00220A
:100DE600C3E536942CE53594014005D2B07538003C
:010DF60022DA
:100B63008F5DE55D1203B10B92000B96010B9A02A8
:100B73000B9E030BA2040BA6050BAA060BAE070BD9
:100B8300B2080BB6090BBA0A0BBE0B00000BC175FA
:100B930034642275345A22753450227534462275D2
:100BA300343C22753432227534282275341E227562
:0F0BB30034142275340A22753405227534002259
:10084100120E35EF6043755E00E55EC3940C5023D4
:10085100120086AD5EED25E02401F582E4340CF54D
:1008610083E493FC740193FDC3EF9DEE9C5004055A
:100871005E80D6E532D3955E5006E53264FF704A5C
:10088100AF5E120B63855E3222755E00E55EC39436
:100891000C5023120086AD5EED25E02419F582E4AB
:1008A100340CF583E493FC740193FDC3EF9DEE9C3E
:1008B1005004055E80D6E532C3955E4005E532B44D
:0B08C100FF08AF5E120B63855E322261
:1008CC0030B00BE53870057538018002C2B0AF331B
:1008DC000533EFD3940A40657533007F07120C3152
:1008EC007C007DB41203DDC004C005C006C0077FC8
:1008FC0008120C31AB07AA06E4F9F8D007D006D0E1
:10090C0005D00412030C8E358F361208417F061267
:10091C000C317C007D481203DDC004C005C006C04C
:10092C00077F08120C31AB07AA06E4F9F8D007D000
:0E093C0006D005D00412030CEF2408F5372274
:100D280053ACFE43AD01C2B043B38053B47F7535B5
:0E0D3800007536007534007537007533FE22E5
:0B0E5B008F5FE55FB40103120DE6227B
:100CCA008F4C8D4D8B4E754F00854E4EE54C120361
:100CDA00B10CE20000000CE7AF4D120E5BAF4F22E1
:100E0700120E35EF7006120E70EF6003120E90226D
:01008100225C
:100DA6007E0C7FCA120E507E007F817C0E7D07125C
:060DB6000DBC750A0122CC
:080E7A007E007F81120DD122E0
:030DA20001390014
:100C31008F60E5601203B10C4A060C45070C4F08A2
:100C410000000C54AE3AAF3B22AE3CAF3D22AE3E6B
:0F0C5100AF3F22E47E007F0022E47E007F00227E
:10040A007550007551007552007553000539AF39A2
:10041A00EFD3940550030204E175390053E8F04321
:10042A00E80743B30253B4FD75F60043F68043E18F
:10043A0001C2EFD2EE30EFFDAFC3E4FCFDFE78045B
:10044A0012039EA804A905AA06AB07AFC2E4FCFDE5
:10045A00FEEB4FFFEA4EFEE94DFDE84CFC8E3A8F6B
:10046A003B53E1FE53E8F043E80643B10853B2F7C1
:10047A0075F60043F64043E101C2EFD2EE30EFFDDC
:10048A00AFC37E00EF75F010A4FFAEF0ADC27C00E2
:10049A00EE4CF53CEF4DF53D53E1FE43E80853E8D9
:1004AA00F843E101C2EFD2EE30EFFDAFC3E4FCFD49
:1004BA00FE780412039EA804A905AA06AB07AFC2D8
:1004CA00E4FCFDFEEB4FFFEA4EFEE94DFDE84CFC75
:0804DA008E3E8F3F53E1FE222C
:100E170075610043B10853B2F743B30253B4FD22DF
:1007C100020A30E493A3F8E493A34003F68001F214
:1007D10008DFF48029E493A3F85407240CC8C33339
:1007E100C4540F4420C8834004F456800146F6DF08
:1007F100E4800B0102040810204080900D90E47EFB
:10080100019360BCA3FF543F30E509541FFEE493FC
:10081100A360010ECF54C025E060A840B8E493A3C3
:10082100FAE493A3F8E493A3C8C582C8CAC583CAEE
:10083100F0A3C8C582C8CAC583CADFE9DEE780BEA6
:010DA500004D
:10027B00BC000BBE0029EF8DF084FFADF022E4CC67
:10028B00F875F008EF2FFFEE33FEEC33FCEE9DEC30
:10029B00984005FCEE9DFE0FD5F0E9E4CEFD22ED76
:1002AB00F8F5F0EE8420D21CFEADF075F008EF2FC0
:1002BB00FFED33FD4007985006D5F0F222C398FDB1
:0502CB000FD5F0EA224E
:1002D00075F008758200EF2FFFEE33FECD33CDCCE5
:1002E00033CCC58233C5829BED9AEC99E582984068
:1002F0000CF582EE9BFEED9AFDEC99FC0FD5F0D645
:10030000E4CEFBE4CDFAE4CCF9A88222B800C1B96E
:100310000059BA002DEC8BF084CFCECDFCE5F0CBAC
:10032000F97818EF2FFFEE33FEED33FDEC33FCEBE5
:1003300033FB10D703994004EB99FB0FD8E5E4F9A0
:10034000FA227818EF2FFFEE33FEED33FDEC33FC8D
:10035000C933C910D7059BE99A4007EC9BFCE99A81
:10036000F90FD8E0E4C9FAE4CCFB2275F010EF2FC6
:10037000FFEE33FEED33FDCC33CCC833C810D707C6
:100380009BEC9AE899400AED9BFDEC9AFCE899F801
:0E0390000FD5F0DAE4CDFBE4CCFAE4C8F92294
:10039E00E8600FEFC333FFEE33FEED33FDEC33FCBD
:0303AE00D8F12261
:1003B100D083D082F8E4937012740193700DA3A3DB
:1003C10093F8740193F5828883E4737402936860EF
:0603D100EFA3A3A380DFEF
:0603D7008A838982E473B1
:1003DD00EC8EF0A4CCC5F0CCCDF8EFA4CEC5F02DAD
:1003ED00FDE43CFCE8A42EC8C5F03DFDE43CFCEF6B
:0D03FD00A4FFE5F028FEE43DFDE43CFC22F9
:00000001FF
