:03000000020850A3
:0C085000787FE4F6D8FD758162020897FD
:0D0E5600759501438E02754401754300221D
:03008B00020E95CD
:070E9500538FEF7544013299
:100D5600538FF7538FEF538FFB538FFD538FFE75D2
:090D6600869C439C04438F082283
:1009CF00A2AF9200C2AF75C7AA75C755439F01A2C8
:1009DF000092AF75A60475A70075AE0F75AFE1A2B3
:1009EF00AF9200C2AF75C7AA75C75543A504A20041
:1009FF0092AFA2AF9200C2AF75C7AA75C75543A4F5
:100A0F0001A20092AFE59F20E6FBA2AF9200C2AF1A
:100A1F0075C7AA75C75553A5FBA20092AFA2AF9297
:100A2F0000C2AF75C7AA75C755539FFEA20092AFFC
:010A3F002294
:100BD2001209CF75C7AA75C75575AA07A2AF9200A9
:100BE200C2AF75C7AA75C75543AA40A20092AFE526
:100BF200AA44BFFFEF64FF60F6D2AFA2AF9200C279
:0F0C0200AF75C7AA75C75543AA80A20092AF224B
:070E9C00120C70120DB922C7
:070EA300120DA1120CFA224E
:100A40007F647E00120D6F120BD2120E56120E2A08
:100A5000120D19120D56120003120D38120CFAA2C3
:100A6000AF9200C2AF75C7AA75C75543AA40A2008E
:100A700092AFE5446022754400A2AF9200C2AF7508
:100A8000C7AA75C75543AA40A20092AF12040A1222
:100A900008DC12095A120C98120E8DEF600543877C
:090AA0000280CF43870180CA22C5
:0A0E79008F5BAF5B155BEF70F92291
:100E0A007FFA120E797FFA120E797FFA120E792280
:100D6F008E558F56E5561556AE5570021555FFEF39
:090D7F004E6005120E0A80EC2200
:0C0D88000A113F065B4F666D7D277F6FF0
:0300830002008EEA
:10008E00C0E0C083C082C0D075D000C000C007538E
:10009E00C4EFC280C281C284C290C292C295004394
:1000AE00B10153B2FE43B10253B2FD43B11053B28C
:1000BE00EF43B30153B4FE43B30453B4FB43B32035
:1000CE0053B4DFE50D1203B100EC00011E01016A0D
:1000DE000201B60301F40402320500000261C2807F
:1000EE00E50E30E708D29053B3FE43B401E50F306E
:1000FE00E708D29253B3FB43B404E51030E708D2BD
:10010E009553B3DF43B42053B1FE43B201020261F3
:10011E00C284E50E30E008D28153B1FD43B202E550
:10012E000E30E108D28053B1FE43B201E50E30E24B
:10013E0008D29053B3FE43B401E50E30E308D292D9
:10014E0053B3FB43B404E50E30E408D29553B3DF4A
:10015E0043B42053B1EF43B210020261D284E50FD3
:10016E0030E008C28153B1FD43B202E50F30E10821
:10017E00C28053B1FE43B201E50F30E208C2905384
:10018E00B3FE43B401E50F30E308C29253B3FB4311
:10019E00B404E50F30E408C29553B3DF43B42053E3
:1001AE00B1EF43B210020261C281E50E30E508D212
:1001BE008053B1FE43B201E50E30E608D29053B340
:1001CE00FE43B401E50F30E508D29253B3FB43B4BE
:1001DE0004E50F30E608D29553B3DF43B42053B194
:1001EE00FD43B202806DD281E51030E008C280532B
:1001FE00B1FE43B201E51030E108C29053B3FE43A5
:10020E00B401E51030E208C29253B3FB43B404E5E7
:10021E001030E308C29553B3DF43B42053B1FD430E
:10022E00B202802FD280E51030E408C29053B3FEA4
:10023E0043B401E51030E508C29253B3FB43B40456
:10024E00E51030E608C29553B3DF43B42053B1FE38
:10025E0043B201050DAF0DEFD394054003750D00AC
:0D026E00D007D000D0D0D082D083D0E032B5
:100C9800E50C450B6007AA0BA90C1203D7E50A60FF
:100CA80010750A00E50945086007AA08A909120392
:020CB800D72241
:100DCF008E458F468C478D48854508854609854752
:050DDF000B85480C2209
:100DE4008E578F58E509B55809E508B557047F01B2
:050DF40080027F0022D7
:100C700043B10153B2FE43B10253B2FD43B110532D
:100C8000B2EF43B30153B4FE43B30453B4FB43B3D5
:080C90002053B4DF53C4F72226
:100DA10043C40143C40253C4FB75C6F275C5FA437B
:080DB1009C02D2AF43C40822EA
:1000030053B3DF43B42053B3FB43B40453B3FE43AE
:10001300B40153B1FE43B20153B1FD43B20253B134
:10002300EF43B210D295D292D290D280D281D284B1
:1000330053B1DF53B1DF43B22053B1BF43B2405397
:10004300B17F43B280C285C286C287750A01750833
:1000530000750900750B00750C00750D00750EFF1A
:10006300750FFF7510FF43C40143C40253C4FB75EE
:0E007300C6F275C5FA439C02D2AF43C4082200
:030D9400012C002F
:0E0E3A00E52CD3940040047F0180027F00224B
:1005A100E52C64046003020657AF2B152BEF6003A3
:1005B100020657E52D1203B105E10005EA0105F335
:1005C1000205FC03060504060E05061706062007AC
:1005D100062908063209063B0A06440B0000064DAF
:1005E100D287752B0A752D0122C287752B0A752DAD
:1005F1000222D287752B0A752D0322C287752B0A19
:10060100752D0422D287752B0A752D0522C2877597
:100611002B1E752D0622D286752B0A752D0722C237
:1006210086752B0A752D0822D286752B0A752D0920
:1006310022C286752B0A752D0A22D286752B0A7560
:100641002D0B22C286752B1E752D0022C287C286F4
:07065100752D00752B00223E
:10065800E52C6405600302070CAF2F152FEF60032C
:1006680002070CE5301203B106980006A10106AA9C
:100678000206B30306BC0406C50506CE0606D70760
:1006880006E00806E90906F20A06FB0B0000070463
:10069800D287752F3C75300122C287752F3C753083
:1006A8000222D287752F3C75300322C287752F3CF2
:1006B80075300422D287752F3C75300522C28775A4
:1006C8002F3C75300622D287752F0A75300722C253
:1006D80087752F0A75300822D287752F0A75300959
:1006E80022C287752F0A75300A22D287752F0A759C
:1006F800300B22C287752F3C75300022C2877530B7
:0507080000752F002226
:10070D008F5C120E48EF700E120E83EF7008E55CD1
:10071D00B40103120DF9120086C3EF942CEE94016F
:10072D005010120E48EF700A752C00C285C287C298
:10073D008622120E3AEF700CE55C64027069752C1E
:10074D0001D28522E55C6401704F052CAF2CEFD3EF
:10075D0094054003752C01C285C287C286E52C1213
:10076D0003B1078201078502078803078B040796EB
:10077D00050000079CD28522D28722D28622C2870D
:10078D00C286752D00752B0022C28675300022752C
:10079D002C00C285C287C28622E55CB40209752C85
:0807AD0000C285C287C286224A
:100CBA008F498D4A8B4B754C00854B4BE549120386
:100CCA00B10CD20000000CD7AF4A12070DAF4C226C
:100AA900120E48EF7010120E83EF700A120E3AEF11
:100AB9007004120E9C22052EAF2EEFD394634025AD
:100AC900752E00120E48EF60190531AF31EFD3943E
:100AD90003400F753100E52A70047F0180027F0011
:100AE9008F2A750A01120086C3EF942CEE940150E7
:100AF9000F120E48EF7009752C00C285C287C28695
:070B09001205A1120658229B
:1004E200120E48EF605CE52A6058120EAD7E008E57
:1004F2001E8F1FAE1EAF1F7C007D6412027B741123
:100502002FF8E6FF8F1BAE1EAF1F7C007D64120228
:100512007B8C1E8D1FAE1EAF1F7C007D0A12027BDC
:1005220074112FF8E6FF8F1CAE1EAF1F7C007D0AF0
:1005320012027BAF0574112FF8E6FFEF4480F51D20
:100542008053120EAA7E008E1E8F1FAE1EAF1F7C1E
:10055200007D6412027B74112FF8E6FF8F1BAE1E22
:10056200AF1F7C007D6412027B8C1E8D1FAE1EAFFE
:100572001F7C007D0A12027B74112FF8E6FF8F1C8C
:10058200AE1EAF1F7C007D0A12027BAF0574112FD5
:0F059200F8E6FF8F1D851B0E851C0F851D10229F
:100CFA00752E00753100752A007E0C7FBA120E63BC
:0F0D0A007E047FE27C0A7DA9120DCF750A0122BB
:100B1000E521600415218003752201A294E433FFCE
:100B20008F5DE55D64016038E528700475288222D8
:100B3000E5286480703CE527655D6036855D27E5C6
:100B400022B52704E521700B85272275290175211F
:100B50001E8006752902752201752605752500225D
:100B6000E5276401600C752800752600752701755E
:030B700029002237
:10095A00E528547FFFEF60021528E526547FFFEF54
:10096A0060021526120B10E52764016057E526542C
:10097A007FFFEF704FE526701F7526E4E5244523B7
:10098A00600F8524828523837B00AD29AF2712035C
:10099A00DB75290375250322752699E525C394FF7E
:1009AA0050020525E5244523601AE5251313543F13
:1009BA00FB852482852383AD29AF271203DBEF60F1
:0509CA00037529042261
:0B0E63008E598F5A855923855A24228E
:100D190043B31053B4EF752800752600752100758B
:0F0D290025007529007527017523007524002208
:100C110001A4019A019001880183017E017B017980
:100C2100017601700159012C0184017C017201716D
:100C3100015A0159014F014A014001360131012C8C
:060D97000132FF013300F0
:05008600AE36AF372289
:030EAA00AF35223F
:030EAD00AF382239
:0E0E4800E538D3945A40047F0180027F0022D7
:0A0E83003097047F0180027F0022F7
:100DF900C3E537942CE53694014005D2B075390026
:010E090022C6
:100B73008F5EE55E1203B10BA2000BA6010BAA0266
:100B83000BAE030BB2040BB6050BBA060BBE070B79
:100B9300C2080BC6090BCA0A0BCE0B00000BD1759A
:100BA30035642275355A22753550227535462275BE
:100BB300353C22753532227535282275351E22754E
:0F0BC30035142275350A22753505227535002245
:1007B500120E48EF604A755F00E55FC3940C502345
:1007C500120086AD5FED25E02411F582E4340CF5C9
:1007D50083E493FC740193FDC3EF9DEE9C500405E7
:1007E5005F80D6E532D3955F500AE53264FF600439
:1007F500E5337008AF5F120B73855F3275330122E5
:10080500755F00E55FC3940C5023120086AD5FED64
:1008150025E02429F582E4340CF583E493FC740186
:1008250093FDC3EF9DEE9C5004055F80D6E532C372
:10083500955F400BE53264FF6005E533B40108AF11
:0B0845005F120B73855F3275330022D9
:1008DC0030B00BE53970057539018002C2B0AF3408
:1008EC000534EFD3940A40657534007F07120C4130
:1008FC007C007DB41203DDC004C005C006C0077FB8
:10090C0008120C41AB07AA06E4F9F8D007D006D0C0
:10091C0005D00412030C8E368F371207B57F0612E2
:10092C000C417C007D481203DDC004C005C006C02C
:10093C00077F08120C41AB07AA06E4F9F8D007D0E0
:0E094C0006D005D00412030CEF2408F5382263
:100D380053ACFE43AD01C2B043B38053B47F7536A4
:0E0D4800007537007535007538007534FE22D1
:0B0E6E008F60E560B40103120DF92253
:100CDA008F4D8D4E8B4F755000854F4FE54D12034A
:100CEA00B10CF20000000CF7AF4E120E6EAF50229C
:100E1A00120E48EF7006120E83EF6003120EA32221
:01008100225C
:100DB9007E0C7FDA120E637E007F817C0E7D1A1213
:060DC9000DCF750A0122A6
:080E8D007E007F81120DE422BA
:030D9D00013A0018
:100C41008F61E5611203B10C5A060C55070C5F0860
:100C510000000C64AE3BAF3C22AE3DAF3E22AE3F46
:0F0C6100AF4022E47E007F0022E47E007F00226D
:10040A00755100755200755300755400053AAF3A9C
:10041A00EFD3940550030204E1753A0053E8F04320
:10042A00E80743B30253B4FD75F60043F68043E18F
:10043A0001C2EFD2EE30EFFDAFC3E4FCFDFE78045B
:10044A0012039EA804A905AA06AB07AFC2E4FCFDE5
:10045A00FEEB4FFFEA4EFEE94DFDE84CFC8E3B8F6A
:10046A003C53E1FE53E8F043E80643B10853B2F7C0
:10047A0075F60043F64043E101C2EFD2EE30EFFDDC
:10048A00AFC37E00EF75F010A4FFAEF0ADC27C00E2
:10049A00EE4CF53DEF4DF53E53E1FE43E80853E8D7
:1004AA00F843E101C2EFD2EE30EFFDAFC3E4FCFD49
:1004BA00FE780412039EA804A905AA06AB07AFC2D8
:1004CA00E4FCFDFEEB4FFFEA4EFEE94DFDE84CFC75
:0804DA008E3F8F4053E1FE222A
:100E2A0075620043B10853B2F743B30253B4FD22CB
:10085C00020A40E493A3F8E493A34003F68001F268
:10086C0008DFF48029E493A3F85407240CC8C3339D
:10087C00C4540F4420C8834004F456800146F6DF6C
:10088C00E4800B0102040810204080900D88E47E67
:10089C00019360BCA3FF543F30E509541FFEE49361
:1008AC00A360010ECF54C025E060A840B8E493A328
:1008BC00FAE493A3F8E493A3C8C582C8CAC583CA53
:1008CC00F0A3C8C582C8CAC583CADFE9DEE780BE0B
:010DA0000052
:10027B00BC000BBE0029EF8DF084FFADF022E4CC67
:10028B00F875F008EF2FFFEE33FEEC33FCEE9DEC30
:10029B00984005FCEE9DFE0FD5F0E9E4CEFD22ED76
:1002AB00F8F5F0EE8420D21CFEADF075F008EF2FC0
:1002BB00FFED33FD4007985006D5F0F222C398FDB1
:0502CB000FD5F0EA224E
:1002D00075F008758200EF2FFFEE33FECD33CDCCE5
:1002E00033CCC58233C5829BED9AEC99E582984068
:1002F0000CF582EE9BFEED9AFDEC99FC0FD5F0D645
:10030000E4CEFBE4CDFAE4CCF9A88222B800C1B96E
:100310000059BA002DEC8BF084CFCECDFCE5F0CBAC
:10032000F97818EF2FFFEE33FEED33FDEC33FCEBE5
:1003300033FB10D703994004EB99FB0FD8E5E4F9A0
:10034000FA227818EF2FFFEE33FEED33FDEC33FC8D
:10035000C933C910D7059BE99A4007EC9BFCE99A81
:10036000F90FD8E0E4C9FAE4CCFB2275F010EF2FC6
:10037000FFEE33FEED33FDCC33CCC833C810D707C6
:100380009BEC9AE899400AED9BFDEC9AFCE899F801
:0E0390000FD5F0DAE4CDFBE4CCFAE4C8F92294
:10039E00E8600FEFC333FFEE33FEED33FDEC33FCBD
:0303AE00D8F12261
:1003B100D083D082F8E4937012740193700DA3A3DB
:1003C10093F8740193F5828883E4737402936860EF
:0603D100EFA3A3A380DFEF
:0603D7008A838982E473B1
:1003DD00EC8EF0A4CCC5F0CCCDF8EFA4CEC5F02DAD
:1003ED00FDE43CFCE8A42EC8C5F03DFDE43CFCEF6B
:0D03FD00A4FFE5F028FEE43DFDE43CFC22F9
:00000001FF
