:03000000020A12DF
:0C0A1200787FE4F6D8FD758164020A5973
:0D0E5E00759501438E027544017543002215
:100DDB0075C7AA75C75575A3A475C7AA75C75575E9
:030DEB00AB072231
:03008B00020EA7BB
:070EA700538FEF7544013287
:0A0E810075869C758F08439C0422BF
:01008100225C
:070EAE00120C7E120D9B22C5
:070EB500120D83120D2C2227
:100BDD007F647E00120D6A120081120E5E120DDB13
:100BED00120E32120D4B120E81120003120CA612B0
:100BFD000D2CE544600F7544001209851208F7129B
:100C0D000A9E120CCA120E9FEF600543870280E206
:060C1D0043870180DD2287
:0A0E8B008F5FAF5F155FEF70F92273
:100E12007FFA120E8B7FFA120E8B7FFA120E8B2242
:100D6A008E598F5AE55A155AAE5970021559FFEF26
:090D7A004E6005120E1280EC22FD
:0C0DEE000A113F065B4F666D7D277F6F8A
:0300830002031362
:10031300C0E0C083C082C0D075D000C000C0075306
:10032300C4EFC280C281C284C290C292C29500430C
:10033300B10153B2FE43B10253B2FD43B11053B204
:10034300EF43B30153B4FE43B30453B4FB43B320AD
:1003530053B4DFE50D1202BA03710003A30103EFE7
:1003630002043B0304790404B705000004E6C280D9
:10037300E50E30E708D29053B3FE43B401E50F30E6
:10038300E708D29253B3FB43B404E51030E708D235
:100393009553B3DF43B42053B1FE43B2010204E6E5
:1003A300C284E50E30E008D28153B1FD43B202E5C9
:1003B3000E30E108D28053B1FE43B201E50E30E2C4
:1003C30008D29053B3FE43B401E50E30E308D29252
:1003D30053B3FB43B404E50E30E408D29553B3DFC3
:1003E30043B42053B1EF43B2100204E6D284E50FC5
:1003F30030E008C28153B1FD43B202E50F30E1089A
:10040300C28053B1FE43B201E50F30E208C29053FC
:10041300B3FE43B401E50F30E308C29253B3FB4389
:10042300B404E50F30E408C29553B3DF43B420535B
:10043300B1EF43B2100204E6C281E50E30E508D203
:100443008053B1FE43B201E50E30E608D29053B3B8
:10045300FE43B401E50F30E508D29253B3FB43B436
:1004630004E50F30E608D29553B3DF43B42053B10C
:10047300FD43B202806DD281E51030E008C28053A3
:10048300B1FE43B201E51030E108C29053B3FE431D
:10049300B401E51030E208C29253B3FB43B404E560
:1004A3001030E308C29553B3DF43B42053B1FD4387
:1004B300B202802FD280E51030E408C29053B3FE1D
:1004C30043B401E51030E508C29253B3FB43B404CF
:1004D300E51030E608C29553B3DF43B42053B1FEB1
:1004E30043B201050DAF0DEFD394054003750D0025
:0D04F300D007D000D0D0D082D083D0E0322E
:100CCA00E50C450B6007AA0BA90C1202E0E50A60C5
:100CDA0010750A00E50945086007AA08A909120261
:020CEA00E02206
:100DB1008E458F468C478D48854508854609854770
:050DC1000B85480C2227
:100DC6008E5B8F5CE509B55C09E508B55B047F01C0
:050DD60080027F0022F5
:100C7E0043B10153B2FE43B10253B2FD43B110531F
:100C8E00B2EF43B30153B4FE43B30453B4FB43B3C7
:080C9E002053B4DF53C4F72218
:100D830043C40143C40253C4FB75C6F275C5FA4399
:080D93009C02D2AF43C4082208
:1000030053B3DF43B42053B3FB43B40453B3FE43AE
:10001300B40153B1FE43B20153B1FD43B20253B134
:10002300EF43B210D295D292D290D280D281D284B1
:1000330053B1DF53B1DF43B22053B1BF43B2405397
:10004300B17F43B280C285C286C287750A01750833
:1000530000750900750B00750C00750D00750EFF1A
:10006300750FFF7510FF43C40143C40253C4FB75EE
:0E007300C6F275C5FA439C02D2AF43C4082200
:030EBC0000000033
:030DFA00012C00C9
:0E0E4200E52CD3940040047F0180027F002243
:10063000E52C640460030206E6AF2B152BEF600384
:100640000206E6E52D1202BA06700006790106825E
:1006500002068B03069404069D0506A60606AF0750
:1006600006B80806C10906CA0A06D30B000006DC54
:10067000D287752B0A752D0122C287752B0A752D1D
:100680000222D287752B0A752D0322C287752B0A89
:10069000752D0422D287752B0A752D0522C2877508
:1006A0002B1E752D0622D286752B0A752D0722C2A8
:1006B00086752B0A752D0822D286752B0A752D0991
:1006C00022C286752B0A752D0A22D286752B0A75D1
:1006D0002D0B22C286752B1E752D0022C287C28665
:0706E000752D00752B0022AF
:1006E700E52C6405600302079BAF2F152FEF60030E
:1006F70002079BE5301202BA0727000730010739C6
:1007070002074203074B04075405075D0607660700
:10071700076F0807780907810A078A0B0000079304
:10072700D287752F3C75300122C287752F3C7530F3
:100737000222D287752F3C75300322C287752F3C62
:1007470075300422D287752F3C75300522C2877514
:100757002F3C75300622D287752F0A75300722C2C3
:1007670087752F0A75300822D287752F0A753009C9
:1007770022C287752F0A75300A22D287752F0A750C
:10078700300B22C287752F3C75300022C287753027
:0507970000752F002297
:10084F008F60120E50EF700E120E95EF7008E5606C
:10085F00B40103120E01120086C3EF942CEE940123
:10086F005010120E50EF700A752C00C285C287C24D
:10087F008622120E42EF700CE56064027069752CCF
:10088F0001D28522E5606401704F052CAF2CEFD3A8
:10089F0094054003752C01C285C287C286E52C12D0
:1008AF0002BA08C40108C70208CA0308CD0408D851
:1008BF0005000008DED28522D28722D28622C28787
:1008CF00C286752D00752B0022C2867530002275E9
:1008DF002C00C285C287C28622E560B40209752C3E
:0808EF0000C285C287C2862207
:100CEC008F498D4A8B4B754C00854B4BE549120255
:100CFC00BA0D040000000D09AF4A12084FAF4C2288
:100B1300120E50EF7010120E95EF700A120E42EF84
:100B23007004120EAE22052EAF2EEFD39463402530
:100B3300752E00120E50EF60190531AF31EFD394CB
:100B430003400F753100E52A70047F0180027F00A6
:100B53008F2A750A01120086C3EF942CEE9401507C
:100B63000F120E50EF7009752C00C285C287C28622
:070B73001206301206E72212
:100500007BFF7A0E79BCC003C002C0017B007A0079
:10051000791BA801AC02AD03D001D002D0037E004C
:100520007F0312015E120E50EF6068E52A606412CC
:100530000EC27E008E1E8F1FD3E51F9463E51E94AE
:10054000004022AE1EAF1F7C007D64120184741136
:100550002FF8E6FF8F1BAE1EAF1F7C007D641201DB
:10056000848C1E8D1FAE1EAF1F7C007D0A1201847D
:1005700074112FF8E6FF8F1CAE1EAF1F7C007D0AA2
:10058000120184AF0574112FF8E6FFEF4480F51DCA
:10059000020626120EBF7E008E1E8F1FD3E51F940B
:1005A00063E51E9400404CAE1EAF1F7C007D6412BC
:1005B000018474112FF8E6FF8F1BAE1EAF1F7C0065
:1005C0007D641201848C1E8D1FAE1EAF1F7C007DCA
:1005D0000A12018474112FF8E6FF8F1CAE1EAF1FA4
:1005E0007C007D0A120184AF0574112FF8E6FF8F9D
:1005F0001D8033D3E51F9409E51E94004013AE1E01
:10060000AF1F7C007D0A12018474112FF8E6FF8F62
:100610001BAE1EAF1F7C007D0A120184AF05741152
:100620002FF8E6FF8F1C851B0E851C0F851D1022E1
:100D2C00752E00753100752A007E0C7FEC120E6B4F
:0F0D3C007E057F007C0B7D13120DB1750A01221D
:100B7A00E521600415218003752201A294E433FF64
:100B8A008F61E56164016038E52870047528822266
:100B9A00E5286480703CE52765616036856127E554
:100BAA0022B52704E521700B8527227529017521B5
:100BBA001E800675290275220175260575250022F3
:100BCA00E5276401600C75280075260075270175F4
:030BDA00290022CD
:100A9E00E528547FFFEF60021528E526547FFFEF0F
:100AAE0060021526120B7AE52764016057E526547D
:100ABE007FFFEF704FE526701F7526E4E524452372
:100ACE00600F8524828523837B00AD29AF27120218
:100ADE00E475290375250322752699E525C394FF30
:100AEE0050020525E5244523601AE5251313543FCE
:100AFE00FB852482852383AD29AF271202E4EF60A4
:050B0E0003752904221B
:0B0E6B008E5D8F5E855D23855E242276
:100D4B0043B31053B4EF7528007526007521007559
:0F0D5B00250075290075270175230075240022D6
:100C520001A9019F01950190018B01810177016D2D
:100C620001630159014A01900186017C0172016808
:0C0C7200015E0154014A01400136012CD2
:05008600AE34AF35228D
:030EBF00AF33222C
:030EC200AF362226
:0E0E5000E536D3945A40047F0180027F0022D1
:0A0E95003097047F0180027F0022E5
:100E0100C3E535942CE53494014005D2B075380022
:010E110022BE
:10079C0085344F853550E5396003153922120E50DA
:1007AC00EF6050754D00E54DC3940A5022AF4DEFEC
:1007BC0025E02452F582E4340CF583E493FE7401B5
:1007CC0093FFD3E5509FE54F9E5004054D80D7E530
:1007DC004DD3940A40047F0A8002AF4DEF75F00AA6
:1007EC00A4FFC374649FF54EE54ED39533405385F7
:1007FC004E3322754D00E54DC3940A5022AF4DEF98
:10080C0025E02468F582E4340CF583E493FE74014E
:10081C0093FFD3E5509FE54F9E5004054D80D7E5DF
:10082C004DD3940A40047F0A8002AF4DEF75F00A55
:10083C00A4FFC374649FF54EE54EC39533500385F6
:03084C004E332206
:1008F70030B00BE53870057538018002C2B07F064D
:10090700120C237C007D481202E6C004C005C00615
:10091700C0077F08120C23AB07AA06E4F9F8D00733
:10092700D006D005D004120215EF2408F536120EB2
:1009370050EF65376008120E508F3775391E053234
:10094700AF32EFD3946440357532007F07120C2322
:100957007C007D781202E6C004C005C006C0077F90
:1009670008120C23AB07AA06E4F9F8D007D006D083
:0E09770005D0041202158E348F3512079C2213
:100CA60053ACFE43AD01C2B043B38053B47F753439
:100CB60000753500753300753600753200753900DC
:040CC600753700225C
:0B0E76008F62E562B40103120E01223E
:100D0C008F518D528B53755400855353E5511202FC
:100D1C00BA0D240000000D29AF52120E76AF5422EA
:100E2200120E50EF7006120E95EF6003120EB522ED
:01008200225B
:100D9B007E0D7F0C120E6B7E007F827C0E7D2212ED
:060DAB000DB1750A0122E2
:080E9F007E007F82120DC622C5
:030DFD00013A00B8
:100C23008F63E5631202BA0C3C060C37070C4108CC
:100C330000000C467E0F7FFF22AE3DAF3E22AE3F4B
:0F0C4300AF4022E47E007F0022E47E007F00228B
:10098500755500755600755700755800053AAF3A0C
:10099500EFD3940A4076753A0053E8F043E80643EE
:1009A500B10853B2F775F60043F64043E101C2EFD3
:1009B500D2EE30EFFDAFC37E00EF75F010A4FFAEB1
:1009C500F0ADC27C00EE4CF53DEF4DF53E53E1FE3A
:1009D50043E80853E8F843E101C2EFD2EE30EFFDFA
:1009E500AFC3E4FCFDFE78041202A7A804A905AA7A
:1009F50006AB07AFC2E4FCFDFEEB4FFFEA4EFEE996
:0D0A05004DFDE84CFC8E3F8F4053E1FE227A
:100E320075640043B10853B2F743B30253B4FD22C1
:100A1E00020BDDE493A3F8E493A34003F68001F206
:100A2E0008DFF48029E493A3F85407240CC8C333D9
:100A3E00C4540F4420C8834004F456800146F6DFA8
:100A4E00E4800B0102040810204080900DEEE47E3D
:100A5E00019360BCA3FF543F30E509541FFEE4939D
:100A6E00A360010ECF54C025E060A840B8E493A364
:100A7E00FAE493A3F8E493A3C8C582C8CAC583CA8F
:100A8E00F0A3C8C582C8CAC583CADFE9DEE780BE47
:010E000000F1
:10008E00E709F608DFFA8046E709F208DFFA803E54
:10009E0088828C83E709F0A3DFFA8032E309F60841
:1000AE00DFFA8078E309F208DFFA807088828C83A9
:1000BE00E309F0A3DFFA806489828A83E0A3F6085D
:1000CE00DFFA805889828A83E0A3F208DFFA804C37
:1000DE0080D280FA80C680D4806980F2803380100E
:1000EE0080A680EA809A80A880DA80E280CA803377
:1000FE0089828A83ECFAE493A3C8C582C8CCC583EF
:10010E00CCF0A3C8C582C8CCC583CCDFE9DEE780BE
:10011E000D89828A83E493A3F608DFF9ECFAA9F03D
:10012E00EDFB2289828A83ECFAE0A3C8C582C8CC93
:10013E00C583CCF0A3C8C582C8CCC583CCDFEADEAC
:10014E00E880DB89828A83E493A3F208DFF980CC0E
:10015E0088F0EF60010E4E60C388F0ED2402B40407
:10016E000050B9F582EB2402B4040050AF232345AE
:06017E0082239000DE73F5
:10018400BC000BBE0029EF8DF084FFADF022E4CC5F
:10019400F875F008EF2FFFEE33FEEC33FCEE9DEC28
:1001A400984005FCEE9DFE0FD5F0E9E4CEFD22ED6E
:1001B400F8F5F0EE8420D21CFEADF075F008EF2FB8
:1001C400FFED33FD4007985006D5F0F222C398FDA9
:0501D4000FD5F0EA2246
:1001D90075F008758200EF2FFFEE33FECD33CDCCDD
:1001E90033CCC58233C5829BED9AEC99E582984060
:1001F9000CF582EE9BFEED9AFDEC99FC0FD5F0D63D
:10020900E4CEFBE4CDFAE4CCF9A88222B800C1B966
:100219000059BA002DEC8BF084CFCECDFCE5F0CBA4
:10022900F97818EF2FFFEE33FEED33FDEC33FCEBDD
:1002390033FB10D703994004EB99FB0FD8E5E4F998
:10024900FA227818EF2FFFEE33FEED33FDEC33FC85
:10025900C933C910D7059BE99A4007EC9BFCE99A79
:10026900F90FD8E0E4C9FAE4CCFB2275F010EF2FBE
:10027900FFEE33FEED33FDCC33CCC833C810D707BE
:100289009BEC9AE899400AED9BFDEC9AFCE899F8F9
:0E0299000FD5F0DAE4CDFBE4CCFAE4C8F9228C
:1002A700E8600FEFC333FFEE33FEED33FDEC33FCB5
:0302B700D8F12259
:1002BA00D083D082F8E4937012740193700DA3A3D3
:1002CA0093F8740193F5828883E4737402936860E7
:0602DA00EFA3A3A380DFE7
:0602E0008A838982E473A9
:1002E600EC8EF0A4CCC5F0CCCDF8EFA4CEC5F02DA5
:1002F600FDE43CFCE8A42EC8C5F03DFDE43CFCEF63
:0D030600A4FFE5F028FEE43DFDE43CFC22F0
:00000001FF
