:03000000020A3DB4
:0C0A3D00787FE4F6D8FD758165020A841C
:0D0E8600759501438E0275450175440022EB
:100E160075C7AA75C75575A3A475C7AA75C75575AD
:030E2600AB0722F5
:03008B00020ECF93
:070ECF00538FEF754501325E
:0A0EA90075869C758F08439C042297
:01008100225C
:070ED600120CA3120DD6223D
:070EDD00120DA8120D5122B5
:100C02007F647E00120D8F120081120E86120E1664
:100C1200120E5A120D70120EA9120003120CCB12F0
:100C22000D51E545600F7545001209B012092212F7
:100C32000AC9120CEF120EC7EF600543870280E269
:060C420043870180DD2262
:0A0EB3008F60AF601560EF70F92248
:100E3A007FFA120EB37FFA120EB37FFA120EB322A2
:100D8F008E5A8F5BE55B155BAE5A7002155AFFEFFB
:090D9F004E6005120E3A80EC22B0
:0C0DC0000A113F065B4F666D7D277F6FB8
:0300830002031362
:10031300C0E0C083C082C0D075D000C000C0075306
:10032300C4EFC280C281C284C290C292C29500430C
:10033300B10153B2FE43B10253B2FD43B11053B204
:10034300EF43B30153B4FE43B30453B4FB43B320AD
:1003530053B4DFE50D1202BA03710003A30103EFE7
:1003630002043B0304790404B705000004E6C280D9
:10037300E50E30E708D29053B3FE43B401E50F30E6
:10038300E708D29253B3FB43B404E51030E708D235
:100393009553B3DF43B42053B1FE43B2010204E6E5
:1003A300C284E50E30E008D28153B1FD43B202E5C9
:1003B3000E30E108D28053B1FE43B201E50E30E2C4
:1003C30008D29053B3FE43B401E50E30E308D29252
:1003D30053B3FB43B404E50E30E408D29553B3DFC3
:1003E30043B42053B1EF43B2100204E6D284E50FC5
:1003F30030E008C28153B1FD43B202E50F30E1089A
:10040300C28053B1FE43B201E50F30E208C29053FC
:10041300B3FE43B401E50F30E308C29253B3FB4389
:10042300B404E50F30E408C29553B3DF43B420535B
:10043300B1EF43B2100204E6C281E50E30E508D203
:100443008053B1FE43B201E50E30E608D29053B3B8
:10045300FE43B401E50F30E508D29253B3FB43B436
:1004630004E50F30E608D29553B3DF43B42053B10C
:10047300FD43B202806DD281E51030E008C28053A3
:10048300B1FE43B201E51030E108C29053B3FE431D
:10049300B401E51030E208C29253B3FB43B404E560
:1004A3001030E308C29553B3DF43B42053B1FD4387
:1004B300B202802FD280E51030E408C29053B3FE1D
:1004C30043B401E51030E508C29253B3FB43B404CF
:1004D300E51030E608C29553B3DF43B42053B1FEB1
:1004E30043B201050DAF0DEFD394054003750D0025
:0D04F300D007D000D0D0D082D083D0E0322E
:100CEF00E50C450B6007AA0BA90C1202E0E50A60A0
:100CFF0010750A00E50945086007AA08A90912023C
:020D0F00E022E0
:100DEC008E468F478C488D4985460885470985482E
:050DFC000B85490C22EB
:100E01008E5C8F5DE509B55D09E508B55C047F0180
:050E110080027F0022B9
:100CA30043B10153B2FE43B10253B2FD43B11053FA
:100CB300B2EF43B30153B4FE43B30453B4FB43B3A2
:080CC3002053B4DF53C4F722F3
:100DA80043C40143C40253C4FB75C6F275C5FA4374
:080DB8009C02D2AF43C40822E3
:1000030053B3DF43B42053B3FB43B40453B3FE43AE
:10001300B40153B1FE43B20153B1FD43B20253B134
:10002300EF43B210D295D292D290D280D281D284B1
:1000330053B1DF53B1DF43B22053B1BF43B2405397
:10004300B17F43B280C285C286C287750A01750833
:1000530000750900750B00750C00750D00750EFF1A
:10006300750FFF7510FF43C40143C40253C4FB75EE
:0E007300C6F275C5FA439C02D2AF43C4082200
:0300860000000077
:030DCC00013500EE
:0E0E6A00E535D3940040047F0180027F002212
:10071400E535640460030207CAAF341534EF60039F
:100724000207CAE5361202BA075400075D010766DC
:1007340002076F03077804078105078A06079307F2
:10074400079C0807A50907AE0A07B70B000007C0F6
:10075400D28775340A75360122C28775340A753614
:100764000222D28775340A75360322C28775340A89
:1007740075360422D28775340A75360522C2877508
:10078400341E75360622D28675340A75360722C29F
:100794008675340A75360822D28675340A75360988
:1007A40022C28675340A75360A22D28675340A75D1
:1007B400360B22C28675341E75360022C287C28665
:0707C40075360075340022B8
:1007CB00E5356405600302087FAF381538EF600329
:1007DB0002087FE5391202BA080B00081401081D44
:1007EB0002082603082F04083805084106084A07A3
:1007FB00085308085C0908650A086E0B00000877A7
:10080B00D28775383C75390122C28775383C7539EA
:10081B000222D28775383C75390322C28775383C62
:10082B0075390422D28775383C75390522C2877514
:10083B00383C75390622D28775380A75390722C2BA
:10084B008775380A75390822D28775380A753909C0
:10085B0022C28775380A75390A22D28775380A750C
:10086B00390B22C28775383C75390022C28775391E
:05087B000075380022A9
:100880008F61120E78EF700E120EBDEF7008E561E9
:10089000B40103120E29120EE4EF7010120E78EF5D
:1008A000700A753500C285C287C28622120E6AEFB1
:1008B000700CE56164027069753501D28522E561CD
:1008C0006401704F0535AF35EFD39405400375359E
:1008D00001C285C287C286E5351202BA08EF010857
:1008E000F20208F50308F80409030500000909D21B
:1008F0008522D28722D28622C287C28675360075AB
:10090000340022C28675390022753500C285C2873F
:10091000C28622E561B40209753500C285C287C26C
:0209200086222D
:100D11008F4A8D4B8B4C754D00854C4CE54A120228
:100D2100BA0D290000000D2EAF4B120880AF4D22E5
:100BA100120E78EF7010120EBDEF700A120E6AEF7E
:100BB1007004120ED6220537AF37EFD39463402568
:100BC100753700120E78EF6019053AAF3AEFD394FA
:100BD10003400F753A00E53370047F0180027F0006
:100BE1008F33750A01120EE4EF700F120E78EF7059
:100BF10009753500C285C287C2861207141207CB58
:010C010022D0
:100500007BFF7A007986C003C002C0017B007A00BD
:10051000791BA801AC02AD03D001D002D0037E004C
:100520007F0312015E120E78EF6068E5336064129B
:100530000EE77E008E1E8F1FD3E51F9463E51E9489
:10054000004022AE1EAF1F7C007D64120184741136
:100550002FF8E6FF8F1BAE1EAF1F7C007D641201DB
:10056000848C1E8D1FAE1EAF1F7C007D0A1201847D
:1005700074112FF8E6FF8F1CAE1EAF1F7C007D0AA2
:10058000120184AF0574112FF8E6FFEF4480F51DCA
:10059000020626120EE47E008E1E8F1FD3E51F94E6
:1005A00063E51E9400404CAE1EAF1F7C007D6412BC
:1005B000018474112FF8E6FF8F1BAE1EAF1F7C0065
:1005C0007D641201848C1E8D1FAE1EAF1F7C007DCA
:1005D0000A12018474112FF8E6FF8F1CAE1EAF1FA4
:1005E0007C007D0A120184AF0574112FF8E6FF8F9D
:1005F0001D8033D3E51F9409E51E94004013AE1E01
:10060000AF1F7C007D0A12018474112FF8E6FF8F62
:100610001BAE1EAF1F7C007D0A120184AF05741152
:100620002FF8E6FF8F1C851B0E851C0F851D1022E1
:100D5100753700753A007533007E0D7F11120E93C1
:0F0D61007E057F007C0B7DA1120DEC750A01222F
:100B3E00E521600415218003752201A294E433FFA0
:100B4E008F62E56264016038E528700475288222A0
:100B5E00E5286480703CE52765626036856227E58E
:100B6E0022B52704E521700B8527227529017521F1
:100B7E001E8006752902752201752605752500222F
:100B8E00E5276401600C7528007526007527017530
:030B9E0029002209
:100AC900E528547FFFEF60021528E526547FFFEFE4
:100AD90060021526120B3EE52764016057E526548E
:100AE9007FFFEF704FE526701F7526E4E524452347
:100AF900600F8524828523837B00AD29AF271202ED
:100B0900E475290375250322752699E525C394FF04
:100B190050020525E5244523601AE5251313543FA2
:100B2900FB852482852383AD29AF271202E4EF6078
:050B39000375290422F0
:0B0E93008E5E8F5F855E23855F24224A
:100D700043B31053B4EF7528007526007521007534
:0F0D8000250075290075270175230075240022B1
:100C770001A4019F019A0190018B01810177016D08
:100C870001630159014A01900186017C01720168E3
:0C0C9700015E0154014A01400136012CAD
:030DCF00012A00F6
:030EE400AF2C220E
:030EE700AF2F2208
:0E0E7800E52FD3945A40047F0180027F0022B0
:0A0EBD003097047F0180027F0022BD
:100E2900C3E52E942CE52D94014005D2B07531000F
:010E39002296
:10063000E5326003153222852D50852E51120E7839
:10064000EF6061754E00E54EC3940A5022AF4EEF45
:1006500025E02477F582E4340CF583E493FE7401FD
:1006600093FFD3E5519FE5509E5004054E80D7E59A
:100670004ED3940A40047F0A8002AF4EEF75F00A11
:10068000A4FFC374649FF54FE54FD3952C4011052B
:100690002AAF2AEFD39405407A752A00854F2C2281
:1006A000752A0022754E00E54EC3940A5022AF4EC3
:1006B000EF25E0248DF582E4340CF583E493FE7499
:1006C0000193FFD3E5519FE5509E5004054E80D71E
:1006D000E54ED3940A40047F0A8002AF4EEF75F0D6
:1006E0000AA4FFC374649FF54FE54FC3952C5020B7
:1006F000E54F70047F0080027F05052AAE2AD3EF04
:100700006480F8EE648098400A752A00854F2C2298
:04071000752A002224
:1009220030B00BE53170057531018002C2B07F062F
:10093200120C487C007D481202E6C004C005C006C5
:10094200C0077F08120C48AB07AA06E4F9F8D007E3
:10095200D006D005D004120215EF2408F52F120E8E
:1009620078EF65306008120E788F3075321E052BD5
:10097200AF2BEFD394644035752B007F07120C48E0
:100982007C007D7A1202E6C004C005C006C0077F63
:1009920008120C48AB07AA06E4F9F8D007D006D033
:0E09A20005D0041202158E2D8F2E1206302263
:100CCB0053ACFE43AD01C2B043B38053B47F752D1B
:100CDB0000752E00752C00752F00752B00753200DA
:040CEB00753000223E
:0B0E9E008F63E563B40103120E2922EC
:100D31008F528D538B54755500855454E5521202D0
:100D4100BA0D490000000D4EAF53120E9EAF552251
:100E4A00120E78EF7006120EBDEF6003120EDD224D
:01008200225B
:100DD6007E0D7F31120E937E007F827C0E7D4A123D
:060DE6000DEC750A01226C
:080EC7007E007F82120E012261
:030DD200013B00E2
:100C48008F64E5641202BA0C61060C5C070C660836
:100C580000000C6B7E0F7FFF22AE3EAF3F22AE40FE
:0F0C6800AF4122E47E007F0022E47E007F002265
:1009B000755600755700755800755900053BAF3BDB
:1009C000EFD3940A4076753B0053E8F043E80643C2
:1009D000B10853B2F775F60043F64043E101C2EFA8
:1009E000D2EE30EFFDAFC37E00EF75F010A4FFAE86
:1009F000F0ADC27C00EE4CF53EEF4DF53F53E1FE0D
:100A000043E80853E8F843E101C2EFD2EE30EFFDCE
:100A1000AFC3E4FCFDFE78041202A7A804A905AA4E
:100A200006AB07AFC2E4FCFDFEEB4FFFEA4EFEE96A
:0D0A30004DFDE84CFC8E408F4153E1FE224D
:100E5A0075650043B10853B2F743B30253B4FD2298
:100A4900020C02E493A3F8E493A34003F68001F2B5
:100A590008DFF48029E493A3F85407240CC8C333AE
:100A6900C4540F4420C8834004F456800146F6DF7D
:100A7900E4800B0102040810204080900DC0E47E40
:100A8900019360BCA3FF543F30E509541FFEE49372
:100A9900A360010ECF54C025E060A840B8E493A339
:100AA900FAE493A3F8E493A3C8C582C8CAC583CA64
:100AB900F0A3C8C582C8CAC583CADFE9DEE780BE1C
:010DD500001D
:10008E00E709F608DFFA8046E709F208DFFA803E54
:10009E0088828C83E709F0A3DFFA8032E309F60841
:1000AE00DFFA8078E309F208DFFA807088828C83A9
:1000BE00E309F0A3DFFA806489828A83E0A3F6085D
:1000CE00DFFA805889828A83E0A3F208DFFA804C37
:1000DE0080D280FA80C680D4806980F2803380100E
:1000EE0080A680EA809A80A880DA80E280CA803377
:1000FE0089828A83ECFAE493A3C8C582C8CCC583EF
:10010E00CCF0A3C8C582C8CCC583CCDFE9DEE780BE
:10011E000D89828A83E493A3F608DFF9ECFAA9F03D
:10012E00EDFB2289828A83ECFAE0A3C8C582C8CC93
:10013E00C583CCF0A3C8C582C8CCC583CCDFEADEAC
:10014E00E880DB89828A83E493A3F208DFF980CC0E
:10015E0088F0EF60010E4E60C388F0ED2402B40407
:10016E000050B9F582EB2402B4040050AF232345AE
:06017E0082239000DE73F5
:10018400BC000BBE0029EF8DF084FFADF022E4CC5F
:10019400F875F008EF2FFFEE33FEEC33FCEE9DEC28
:1001A400984005FCEE9DFE0FD5F0E9E4CEFD22ED6E
:1001B400F8F5F0EE8420D21CFEADF075F008EF2FB8
:1001C400FFED33FD4007985006D5F0F222C398FDA9
:0501D4000FD5F0EA2246
:1001D90075F008758200EF2FFFEE33FECD33CDCCDD
:1001E90033CCC58233C5829BED9AEC99E582984060
:1001F9000CF582EE9BFEED9AFDEC99FC0FD5F0D63D
:10020900E4CEFBE4CDFAE4CCF9A88222B800C1B966
:100219000059BA002DEC8BF084CFCECDFCE5F0CBA4
:10022900F97818EF2FFFEE33FEED33FDEC33FCEBDD
:1002390033FB10D703994004EB99FB0FD8E5E4F998
:10024900FA227818EF2FFFEE33FEED33FDEC33FC85
:10025900C933C910D7059BE99A4007EC9BFCE99A79
:10026900F90FD8E0E4C9FAE4CCFB2275F010EF2FBE
:10027900FFEE33FEED33FDCC33CCC833C810D707BE
:100289009BEC9AE899400AED9BFDEC9AFCE899F8F9
:0E0299000FD5F0DAE4CDFBE4CCFAE4C8F9228C
:1002A700E8600FEFC333FFEE33FEED33FDEC33FCB5
:0302B700D8F12259
:1002BA00D083D082F8E4937012740193700DA3A3D3
:1002CA0093F8740193F5828883E4737402936860E7
:0602DA00EFA3A3A380DFE7
:0602E0008A838982E473A9
:1002E600EC8EF0A4CCC5F0CCCDF8EFA4CEC5F02DA5
:1002F600FDE43CFCE8A42EC8C5F03DFDE43CFCEF63
:0D030600A4FFE5F028FEE43DFDE43CFC22F0
:00000001FF
