:030000000209B73B
:0C09B700787FE4F6D8FD7581620209FE2D
:0D0FC100759501438E0275440175430022B1
:03008B0002100060
:07100000538FEF754401322C
:100EC100538FF7538FEF538FFB538FFD538FFE7566
:090ED100869C439C04438F082217
:100B3600A2AF9200C2AF75C7AA75C755439F01A25F
:100B46000092AF75A60475A70075AE0F75AFE1A24A
:100B5600AF9200C2AF75C7AA75C75543A504A200D8
:100B660092AFA2AF9200C2AF75C7AA75C75543A48C
:100B760001A20092AFE59F20E6FBA2AF9200C2AFB2
:100B860075C7AA75C75553A5FBA20092AFA2AF922F
:100B960000C2AF75C7AA75C755539FFEA20092AF94
:010BA600222C
:100D3D00120B3675C7AA75C75575AA07A2AF9200D3
:100D4D00C2AF75C7AA75C75543AA40A20092AFE5B9
:100D5D00AA44BFFFEF64FF60F6D2AFA2AF9200C20C
:0F0D6D00AF75C7AA75C75543AA80A20092AF22DF
:07100700120DDB120F242281
:07100E00120F0C120E652207
:100BA7007F647E00120EDA120D3D120FC1120F95EF
:100BB700120E84120EC1120003120EA3120E65A2AA
:100BC700AF9200C2AF75C7AA75C75543AA40A20026
:100BD70092AFE5446022754400A2AF9200C2AF75A0
:100BE700C7AA75C75543AA40A20092AF1206301292
:100BF7000A43120AC1120E03120FF8EF600543876A
:090C07000280CF43870180CA225C
:0A0FE4008F5BAF5B155BEF70F92225
:100F75007FFA120FE47FFA120FE47FFA120FE422D0
:100EDA008E558F56E5561556AE5570021555FFEFCD
:090EEA004E6005120F7580EC2228
:0C0EF3000A113F065B4F666D7D277F6F84
:0300830002031362
:10031300C0E0C083C082C0D075D000C000C0075306
:10032300C4EFC280C281C284C290C292C29500430C
:10033300B10153B2FE43B10253B2FD43B11053B204
:10034300EF43B30153B4FE43B30453B4FB43B320AD
:1003530053B4DFE50D1202BA03710003A30103EFE7
:1003630002043B0304790404B705000004E6C280D9
:10037300E50E30E708D29053B3FE43B401E50F30E6
:10038300E708D29253B3FB43B404E51030E708D235
:100393009553B3DF43B42053B1FE43B2010204E6E5
:1003A300C284E50E30E008D28153B1FD43B202E5C9
:1003B3000E30E108D28053B1FE43B201E50E30E2C4
:1003C30008D29053B3FE43B401E50E30E308D29252
:1003D30053B3FB43B404E50E30E408D29553B3DFC3
:1003E30043B42053B1EF43B2100204E6D284E50FC5
:1003F30030E008C28153B1FD43B202E50F30E1089A
:10040300C28053B1FE43B201E50F30E208C29053FC
:10041300B3FE43B401E50F30E308C29253B3FB4389
:10042300B404E50F30E408C29553B3DF43B420535B
:10043300B1EF43B2100204E6C281E50E30E508D203
:100443008053B1FE43B201E50E30E608D29053B3B8
:10045300FE43B401E50F30E508D29253B3FB43B436
:1004630004E50F30E608D29553B3DF43B42053B10C
:10047300FD43B202806DD281E51030E008C28053A3
:10048300B1FE43B201E51030E108C29053B3FE431D
:10049300B401E51030E208C29253B3FB43B404E560
:1004A3001030E308C29553B3DF43B42053B1FD4387
:1004B300B202802FD280E51030E408C29053B3FE1D
:1004C30043B401E51030E508C29253B3FB43B404CF
:1004D300E51030E608C29553B3DF43B42053B1FEB1
:1004E30043B201050DAF0DEFD394054003750D0025
:0D04F300D007D000D0D0D082D083D0E0322E
:100E0300E50C450B6007AA0BA90C1202E0E50A608A
:100E130010750A00E50945086007AA08A909120226
:020E2300E022CB
:100F3A008E458F468C478D488545088546098547E5
:050F4A000B85480C229C
:100F4F008E578F58E509B55809E508B557047F0145
:050F5F0080027F00226A
:100DDB0043B10153B2FE43B10253B2FD43B11053C1
:100DEB00B2EF43B30153B4FE43B30453B4FB43B369
:080DFB002053B4DF53C4F722BA
:100F0C0043C40143C40253C4FB75C6F275C5FA430E
:080F1C009C02D2AF43C408227D
:1000030053B3DF43B42053B3FB43B40453B3FE43AE
:10001300B40153B1FE43B20153B1FD43B20253B134
:10002300EF43B210D295D292D290D280D281D284B1
:1000330053B1DF53B1DF43B22053B1BF43B2405397
:10004300B17F43B280C285C286C287750A01750833
:1000530000750900750B00750C00750D00750EFF1A
:10006300750FFF7510FF43C40143C40253C4FB75EE
:0E007300C6F275C5FA439C02D2AF43C4082200
:03101500000000D8
:030EFF00012C00C3
:0E0FA500E52CD3940040047F0180027F0022DF
:10070800E52C640460030207BEAF2B152BEF6003D2
:100718000207BEE52D1202BA074800075101075A21
:1007280002076303076C04077505077E060787073A
:1007380007900807990907A20A07AB0B000007B43E
:10074800D287752B0A752D0122C287752B0A752D44
:100758000222D287752B0A752D0322C287752B0AB0
:10076800752D0422D287752B0A752D0522C287752F
:100778002B1E752D0622D286752B0A752D0722C2CF
:1007880086752B0A752D0822D286752B0A752D09B8
:1007980022C286752B0A752D0A22D286752B0A75F8
:1007A8002D0B22C286752B1E752D0022C287C2868C
:0707B800752D00752B0022D6
:1007BF00E52C64056003020873AF2F152FEF60035C
:1007CF00020873E5301202BA07FF0008080108118A
:1007DF0002081A03082304082C05083506083E07EB
:1007EF0008470808500908590A08620B0000086BEF
:1007FF00D287752F3C75300122C287752F3C75301B
:10080F000222D287752F3C75300322C287752F3C89
:10081F0075300422D287752F3C75300522C287753B
:10082F002F3C75300622D287752F0A75300722C2EA
:10083F0087752F0A75300822D287752F0A753009F0
:10084F0022C287752F0A75300A22D287752F0A7533
:10085F00300B22C287752F3C75300022C28775304E
:05086F0000752F0022BE
:100874008F5C120FB3EF700E120FEEEF7008E55C91
:10088400B40103120F64120086C3EF942CEE94019A
:100894005010120FB3EF700A752C00C285C287C2C4
:1008A4008622120FA5EF700CE55C64027069752C4A
:1008B40001D28522E55C6401704F052CAF2CEFD387
:1008C40094054003752C01C285C287C286E52C12AB
:1008D40002BA08E90108EC0208EF0308F20408FD73
:1008E4000500000903D28522D28722D28622C2873C
:1008F400C286752D00752B0022C2867530002275C4
:100904002C00C285C287C28622E55CB40209752C1C
:0809140000C285C287C28622E1
:100E25008F498D4A8B4B754C00854B4BE54912021A
:100E3500BA0E3D0000000E42AF4A120874AF4C22B4
:100C1000120FB3EF7010120FEEEF700A120FA5EF64
:100C2000700412100722052EAF2EEFD394634025D7
:100C3000752E00120FB3EF60190531AF31EFD39469
:100C400003400F753100E52A70047F0180027F00A8
:100C50008F2A750A01120086C3EF942CEE9401507E
:100C60000F120FB3EF7009752C00C285C287C286C0
:070C70001207081207BF2262
:100500007BFF7A107915C003C002C0017B007A001E
:10051000791BA801AC02AD03D001D002D0037E004C
:100520007F0312015E120FB3EF6068E52A60641268
:10053000101B7E008E1E8F1FD3E51F9463E51E9453
:10054000004022AE1EAF1F7C007D64120184741136
:100550002FF8E6FF8F1BAE1EAF1F7C007D641201DB
:10056000848C1E8D1FAE1EAF1F7C007D0A1201847D
:1005700074112FF8E6FF8F1CAE1EAF1F7C007D0AA2
:10058000120184AF0574112FF8E6FFEF4480F51DCA
:100590000206261210187E008E1E8F1FD3E51F94B0
:1005A00063E51E9400404CAE1EAF1F7C007D6412BC
:1005B000018474112FF8E6FF8F1BAE1EAF1F7C0065
:1005C0007D641201848C1E8D1FAE1EAF1F7C007DCA
:1005D0000A12018474112FF8E6FF8F1CAE1EAF1FA4
:1005E0007C007D0A120184AF0574112FF8E6FF8F9D
:1005F0001D8033D3E51F9409E51E94004013AE1E01
:10060000AF1F7C007D0A12018474112FF8E6FF8F62
:100610001BAE1EAF1F7C007D0A120184AF05741152
:100620002FF8E6FF8F1C851B0E851C0F851D1022E1
:100E6500752E00753100752A007E0E7F25120FCE76
:0F0E75007E057F007C0C7D10120F3A750A01225A
:100C7700E521600415218003752201A294E433FF66
:100C87008F5DE55D64016038E52870047528822270
:100C9700E5286480703CE527655D6036855D27E55E
:100CA70022B52704E521700B8527227529017521B7
:100CB7001E800675290275220175260575250022F5
:100CC700E5276401600C75280075260075270175F6
:030CD700290022CF
:100AC100E528547FFFEF60021528E526547FFFEFEC
:100AD10060021526120C77E52764016057E526545C
:100AE1007FFFEF704FE526701F7526E4E52445234F
:100AF100600F8524828523837B00AD29AF271202F5
:100B0100E475290375250322752699E525C394FF0C
:100B110050020525E5244523601AE5251313543FAA
:100B2100FB852482852383AD29AF271202E4EF6080
:050B31000375290422F8
:0B0FCE008E598F5A855923855A242222
:100E840043B31053B4EF752800752600752100751F
:0F0E94002500752900752701752300752400229C
:100D7C0001A4019A019001880183017E017B017914
:100D8C00017601700159012C0190017C0168015917
:100D9C00014F014A01450140013B01360131012C53
:060F02000132FF01330083
:05008600AE36AF372289
:03101800AF3522CF
:03101B00AF3822C9
:0E0FB300E538D3945A40047F0180027F00226B
:0A0FEE003097047F0180027F00228B
:100F6400C3E537942CE53694014005D2B0753900B9
:010F7400225A
:100CDA008F5EE55E1202BA0D09000D0D010D1102BB
:100CEA000D15030D19040D1D050D21060D25070D02
:100CFA0029080D2D090D310A0D350B00000D397526
:100D0A0035642275355A2275355022753546227555
:100D1A00353C22753532227535282275351E2275E5
:100D2A0035142275350A2275350522753500227566
:030D3A003500225F
:10091C00120FB3EF604A755F00E55FC3940C502370
:10092C00120086AD5FED25E0247CF582E4340DF5F4
:10093C0083E493FC740193FDC3EF9DEE9C5004057E
:10094C005F80D6E532D3955F500AE53264FF6004D0
:10095C00E5337008AF5F120CDA855F327533012214
:10096C00755F00E55FC3940C5023120086AD5FEDFC
:10097C0025E02494F582E4340DF583E493FC7401B2
:10098C0093FDC3EF9DEE9C5004055F80D6E532C30A
:10099C00955F400BE53264FF6005E533B40108AFA9
:0B09AC005F120CDA855F327533002209
:100A430030B00BE53970057539018002C2B0AF349F
:100A53000534EFD3940A40657534007F07120DAC5B
:100A63007C007DB41202E6C004C005C006C0077F47
:100A730008120DACAB07AA06E4F9F8D007D006D0EC
:100A830005D0041202158E368F3712091C7F061209
:100A93000DAC7C007D481202E6C004C005C006C050
:100AA300077F08120DACAB07AA06E4F9F8D007D00C
:0E0AB30006D005D004120215EF2408F53822F3
:100EA30053ACFE43AD01C2B043B38053B47F753638
:0E0EB300007537007535007538007534FE2265
:0B0FD9008F60E560B40103120F64227A
:100E45008F4D8D4E8B4F755000854F4FE54D1202DE
:100E5500BA0E5D0000000E62AF4E120FD9AF5022E0
:100F8500120FB3EF7006120FEEEF600312100E2270
:01008100225C
:100F24007E0E7F45120FCE7E007F817C0F7D851261
:060F34000F3A750A0122CC
:080FF8007E007F81120F4F22E1
:030F0800013A00AB
:100DAC008F61E5611202BA0DC5060DC0070DCA08A8
:100DBC0000000DCFAE3BAF3C22AE3DAF3E22AE3F6E
:0F0DCC00AF4022E47E007F0022E47E007F002201
:10063000755100755200755300755400053AAF3A74
:10064000EFD394055003020707753A0053E8F043CF
:10065000E80743B30253B4FD75F60043F68043E167
:1006600001C2EFD2EE30EFFDAFC3E4FCFDFE780433
:100670001202A7A804A905AA06AB07AFC2E4FCFDB5
:10068000FEEB4FFFEA4EFEE94DFDE84CFC8E3B8F42
:100690003C53E1FE53E8F043E80643B10853B2F798
:1006A00075F60043F64043E101C2EFD2EE30EFFDB4
:1006B000AFC37E00EF75F010A4FFAEF0ADC27C00BA
:1006C000EE4CF53DEF4DF53E53E1FE43E80853E8AF
:1006D000F843E101C2EFD2EE30EFFDAFC3E4FCFD21
:1006E000FE78041202A7A804A905AA06AB07AFC2A8
:1006F000E4FCFDFEEB4FFFEA4EFEE94DFDE84CFC4D
:080700008E3F8F4053E1FE2201
:100F950075620043B10853B2F743B30253B4FD225F
:1009C300020BA7E493A3F8E493A34003F68001F298
:1009D30008DFF48029E493A3F85407240CC8C33335
:1009E300C4540F4420C8834004F456800146F6DF04
:1009F300E4800B0102040810204080900EF3E47E93
:100A0300019360BCA3FF543F30E509541FFEE493F8
:100A1300A360010ECF54C025E060A840B8E493A3BF
:100A2300FAE493A3F8E493A3C8C582C8CAC583CAEA
:100A3300F0A3C8C582C8CAC583CADFE9DEE780BEA2
:010F0B0000E5
:10008E00E709F608DFFA8046E709F208DFFA803E54
:10009E0088828C83E709F0A3DFFA8032E309F60841
:1000AE00DFFA8078E309F208DFFA807088828C83A9
:1000BE00E309F0A3DFFA806489828A83E0A3F6085D
:1000CE00DFFA805889828A83E0A3F208DFFA804C37
:1000DE0080D280FA80C680D4806980F2803380100E
:1000EE0080A680EA809A80A880DA80E280CA803377
:1000FE0089828A83ECFAE493A3C8C582C8CCC583EF
:10010E00CCF0A3C8C582C8CCC583CCDFE9DEE780BE
:10011E000D89828A83E493A3F608DFF9ECFAA9F03D
:10012E00EDFB2289828A83ECFAE0A3C8C582C8CC93
:10013E00C583CCF0A3C8C582C8CCC583CCDFEADEAC
:10014E00E880DB89828A83E493A3F208DFF980CC0E
:10015E0088F0EF60010E4E60C388F0ED2402B40407
:10016E000050B9F582EB2402B4040050AF232345AE
:06017E0082239000DE73F5
:10018400BC000BBE0029EF8DF084FFADF022E4CC5F
:10019400F875F008EF2FFFEE33FEEC33FCEE9DEC28
:1001A400984005FCEE9DFE0FD5F0E9E4CEFD22ED6E
:1001B400F8F5F0EE8420D21CFEADF075F008EF2FB8
:1001C400FFED33FD4007985006D5F0F222C398FDA9
:0501D4000FD5F0EA2246
:1001D90075F008758200EF2FFFEE33FECD33CDCCDD
:1001E90033CCC58233C5829BED9AEC99E582984060
:1001F9000CF582EE9BFEED9AFDEC99FC0FD5F0D63D
:10020900E4CEFBE4CDFAE4CCF9A88222B800C1B966
:100219000059BA002DEC8BF084CFCECDFCE5F0CBA4
:10022900F97818EF2FFFEE33FEED33FDEC33FCEBDD
:1002390033FB10D703994004EB99FB0FD8E5E4F998
:10024900FA227818EF2FFFEE33FEED33FDEC33FC85
:10025900C933C910D7059BE99A4007EC9BFCE99A79
:10026900F90FD8E0E4C9FAE4CCFB2275F010EF2FBE
:10027900FFEE33FEED33FDCC33CCC833C810D707BE
:100289009BEC9AE899400AED9BFDEC9AFCE899F8F9
:0E0299000FD5F0DAE4CDFBE4CCFAE4C8F9228C
:1002A700E8600FEFC333FFEE33FEED33FDEC33FCB5
:0302B700D8F12259
:1002BA00D083D082F8E4937012740193700DA3A3D3
:1002CA0093F8740193F5828883E4737402936860E7
:0602DA00EFA3A3A380DFE7
:0602E0008A838982E473A9
:1002E600EC8EF0A4CCC5F0CCCDF8EFA4CEC5F02DA5
:1002F600FDE43CFCE8A42EC8C5F03DFDE43CFCEF63
:0D030600A4FFE5F028FEE43DFDE43CFC22F0
:00000001FF
