:03000000020850A3
:0C085000787FE4F6D8FD758160020897FF
:0D0D5D00759501438E027544017543002217
:03008B00020D94CF
:070D9400538FEF754401329B
:100C7200538FF7538FEF538FFB538FFD538FFE75B7
:090C8200869C439C04438F082268
:01008100225C
:070D9B00120B8C120CD52293
:070DA200120CBD120C162219
:100AF8007F647E00120C8B120081120D5D120D3185
:100B0800120C35120C72120003120C54120C16E55A
:100B18004460FC75440012040A1208DC12095A12D7
:050B28000BB480EB227C
:0A0D80008F59AF591559EF70F92291
:100D11007FFA120D807FFA120D807FFA120D802268
:100C8B008E558F56E5561556AE5570021555FFEF1E
:090C9B004E6005120D1180EC22DF
:0C0CA4000A113F065B4F666D7D277F6FD5
:0300830002008EEA
:10008E00C0E0C083C082C0D075D000C000C007538E
:10009E00C4EFC280C281C284C290C292C295004394
:1000AE00B10153B2FE43B10253B2FD43B11053B28C
:1000BE00EF43B30153B4FE43B30453B4FB43B32035
:1000CE0053B4DFE50D1203B100EC00011E01016A0D
:1000DE000201B60301F40402320500000261C2807F
:1000EE00E50E30E708D29053B3FE43B401E50F306E
:1000FE00E708D29253B3FB43B404E51030E708D2BD
:10010E009553B3DF43B42053B1FE43B201020261F3
:10011E00C284E50E30E008D28153B1FD43B202E550
:10012E000E30E108D28053B1FE43B201E50E30E24B
:10013E0008D29053B3FE43B401E50E30E308D292D9
:10014E0053B3FB43B404E50E30E408D29553B3DF4A
:10015E0043B42053B1EF43B210020261D284E50FD3
:10016E0030E008C28153B1FD43B202E50F30E10821
:10017E00C28053B1FE43B201E50F30E208C2905384
:10018E00B3FE43B401E50F30E308C29253B3FB4311
:10019E00B404E50F30E408C29553B3DF43B42053E3
:1001AE00B1EF43B210020261C281E50E30E508D212
:1001BE008053B1FE43B201E50E30E608D29053B340
:1001CE00FE43B401E50F30E508D29253B3FB43B4BE
:1001DE0004E50F30E608D29553B3DF43B42053B194
:1001EE00FD43B202806DD281E51030E008C280532B
:1001FE00B1FE43B201E51030E108C29053B3FE43A5
:10020E00B401E51030E208C29253B3FB43B404E5E7
:10021E001030E308C29553B3DF43B42053B1FD430E
:10022E00B202802FD280E51030E408C29053B3FEA4
:10023E0043B401E51030E508C29253B3FB43B40456
:10024E00E51030E608C29553B3DF43B42053B1FE38
:10025E0043B201050DAF0DEFD394054003750D00AC
:0D026E00D007D000D0D0D082D083D0E032B5
:100BB400E50C450B6007AA0BA90C1203D7E50A60E4
:100BC40010750A00E50945086007AA08A909120377
:020BD400D72226
:100CEB008E458F468C478D48854508854609854737
:050CFB000B85480C22EE
:100B8C0043B10153B2FE43B10253B2FD43B1105312
:100B9C00B2EF43B30153B4FE43B30453B4FB43B3BA
:080BAC002053B4DF53C4F7220B
:100CBD0043C40143C40253C4FB75C6F275C5FA4360
:080CCD009C02D2AF43C40822CF
:1000030053B3DF43B42053B3FB43B40453B3FE43AE
:10001300B40153B1FE43B20153B1FD43B20253B134
:10002300EF43B210D295D292D290D280D281D284B1
:1000330053B1DF53B1DF43B22053B1BF43B2405397
:10004300B17F43B280C285C286C287750A01750833
:1000530000750900750B00750C00750D00750EFF1A
:10006300750FFF7510FF43C40143C40253C4FB75EE
:0E007300C6F275C5FA439C02D2AF43C4082200
:030CB000012C0014
:0E0D4100E52CD3940040047F0180027F002245
:1005A100E52C64046003020657AF2B152BEF6003A3
:1005B100020657E52D1203B105E10005EA0105F335
:1005C1000205FC03060504060E05061706062007AC
:1005D100062908063209063B0A06440B0000064DAF
:1005E100D287752B0A752D0122C287752B0A752DAD
:1005F1000222D287752B0A752D0322C287752B0A19
:10060100752D0422D287752B0A752D0522C2877597
:100611002B1E752D0622D286752B0A752D0722C237
:1006210086752B0A752D0822D286752B0A752D0920
:1006310022C286752B0A752D0A22D286752B0A7560
:100641002D0B22C286752B1E752D0022C287C286F4
:07065100752D00752B00223E
:10065800E52C6405600302070CAF2F152FEF60032C
:1006680002070CE5301203B106980006A10106AA9C
:100678000206B30306BC0406C50506CE0606D70760
:1006880006E00806E90906F20A06FB0B0000070463
:10069800D287752F3C75300122C287752F3C753083
:1006A8000222D287752F3C75300322C287752F3CF2
:1006B80075300422D287752F3C75300522C28775A4
:1006C8002F3C75300622D287752F0A75300722C253
:1006D80087752F0A75300822D287752F0A75300959
:1006E80022C287752F0A75300A22D287752F0A759C
:1006F800300B22C287752F3C75300022C2877530B7
:0507080000752F002226
:10070D008F5A120D4FEF700E120D8AEF7008E55AC9
:10071D00B40103120D00120086C3EF942CEE940168
:10072D005010120D4FEF700A752C00C285C287C292
:10073D008622120D41EF700CE55A64027069752C1A
:10074D0001D28522E55A6401704F052CAF2CEFD3F1
:10075D0094054003752C01C285C287C286E52C1213
:10076D0003B1078201078502078803078B040796EB
:10077D00050000079CD28522D28722D28622C2870D
:10078D00C286752D00752B0022C28675300022752C
:10079D002C00C285C287C28622E55AB40209752C87
:0807AD0000C285C287C286224A
:060BD6008F498D4A8B4B94
:100BDC00754C00854B4BE5491203B10BEE00000040
:090BEC000BF3AF4A12070DAF4CE8
:010BF50022DD
:1009CF00120D4FEF7010120D8AEF700A120D41EFDA
:1009DF007004120D9B22052EAF2EEFD3946340258A
:1009EF00752E00120D4FEF60190531AF31EFD39413
:1009FF0003400F753100E52A70047F0180027F00EC
:100A0F008F2A750A01120086C3EF942CEE940150C1
:100A1F000F120D4FEF7009752C00C285C287C28669
:070A2F001205A11206582276
:1004E200120D4FEF605CE52A6058120DAC7E008E53
:1004F2001E8F1FAE1EAF1F7C007D6412027B741123
:100502002FF8E6FF8F1BAE1EAF1F7C007D64120228
:100512007B8C1E8D1FAE1EAF1F7C007D0A12027BDC
:1005220074112FF8E6FF8F1CAE1EAF1F7C007D0AF0
:1005320012027BAF0574112FF8E6FFEF4480F51D20
:100542008053120DA97E008E1E8F1FAE1EAF1F7C20
:10055200007D6412027B74112FF8E6FF8F1BAE1E22
:10056200AF1F7C007D6412027B8C1E8D1FAE1EAFFE
:100572001F7C007D0A12027B74112FF8E6FF8F1C8C
:10058200AE1EAF1F7C007D0A12027BAF0574112FD5
:0E059200F8E6FF8F1D851B0E851C0F851D10C2
:0105A0002238
:100C1600752E00753100752A007E0B7FD6120D6A7F
:0F0C26007E047FE27C097DCF120CEB750A012260
:100A3600E521600415218003752201A294E433FFA9
:100A46008F5BE55B64016038E528700475288222B7
:100A5600E5286480703CE527655B6036855B27E5A5
:100A660022B52704E521700B8527227529017521FA
:100A76001E80067529027522017526057525002238
:100A8600E5276401600C7528007526007527017539
:020A9600290035
:010A9800223B
:10095A00E528547FFFEF60021528E526547FFFEF54
:10096A0060021526120A36E52764016057E5265407
:10097A007FFFEF704FE526701F7526E4E5244523B7
:10098A00600F8524828523837B00AD29AF2712035C
:10099A00DB75290375250322752699E525C394FF7E
:1009AA0050020525E5244523601AE5251313543F13
:1009BA00FB852482852383AD29AF271203DBEF60F1
:0509CA00037529042261
:0B0D6A008E578F588557238558242290
:100C350043B31053B4EF7528007526007521007570
:0F0C4500250075290075270175230075240022ED
:100B2D0001A4019A019001880183017E017B017965
:100B3D00017601700159012C0184017C0172017152
:100B4D00015A0159014F014A014001360131012C71
:060CB3000132FF013300D5
:05008600AE36AF372289
:030DA900AF352241
:030DAC00AF38223B
:0E0D4F00E538D3945A40047F0180027F0022D1
:0A0D8A003097047F0180027F0022F1
:100D0000C3E537942CE53694014005D2B07539001F
:010D100022C0
:100A99008F5CE55C1203B10AC8000ACC010AD002D6
:100AA9000AD4030AD8040ADC050AE0060AE4070A9C
:100AB900E8080AEC090AF00A0AF40B00000AF775BB
:100AC90035642275355A2275355022753546227599
:100AD900353C22753532227535282275351E227529
:0F0AE90035142275350A22753505227535002220
:1007B500120D4FEF604A755D00E55DC3940C502343
:1007C500120086AD5DED25E0242DF582E4340BF5B0
:1007D50083E493FC740193FDC3EF9DEE9C500405E7
:1007E5005D80D6E532D3955D500AE53264FF60043D
:1007F500E5337008AF5D120A99855D3275330122C4
:10080500755D00E55DC3940C5023120086AD5DED6A
:1008150025E02445F582E4340BF583E493FC74016B
:1008250093FDC3EF9DEE9C5004055D80D6E532C374
:10083500955D400BE53264FF6005E533B40108AF13
:0A0845005D120A99855D32753300DB
:01084F002286
:1008DC0030B00BE53970057539018002C2B0AF3408
:1008EC000534EFD3940A40657534007F07120B5D15
:1008FC007C007DB41203DDC004C005C006C0077FB8
:10090C0008120B5DAB07AA06E4F9F8D007D006D0A5
:10091C0005D00412030C8E368F371207B57F0612E2
:10092C000B5D7C007D481203DDC004C005C006C011
:10093C00077F08120B5DAB07AA06E4F9F8D007D0C5
:0E094C0006D005D00412030CEF2408F5382263
:100C540053ACFE43AD01C2B043B38053B47F753689
:0E0C6400007537007535007538007534FE22B6
:0B0D75008F5EE55EB40103120D00224A
:060BF6008F4D8D4E8B4F68
:100BFC00755000854F4FE54D1203B10C0E000000EF
:090C0C000C13AF4E120D75AF5030
:010C150022BC
:100D2100120D4FEF7006120D8AEF6003120DA22211
:01008200225B
:100CD5007E0B7FF6120D6A7E007F827C0D7D2112D0
:060CE5000CEB750A012270
:030CB900013A00FD
:100B5D008F5FE55F1203B10B76060B71070B7B08F8
:100B6D0000000B80AE3BAF3C22AE3DAF3E22AE3F10
:0F0B7D00AF4022E47E007F0022E47E007F002252
:10040A00755100755200755300755400053AAF3A9C
:10041A00EFD3940550030204E1753A0053E8F04320
:10042A00E80743B30253B4FD75F60043F68043E18F
:10043A0001C2EFD2EE30EFFDAFC3E4FCFDFE78045B
:10044A0012039EA804A905AA06AB07AFC2E4FCFDE5
:10045A00FEEB4FFFEA4EFEE94DFDE84CFC8E3B8F6A
:10046A003C53E1FE53E8F043E80643B10853B2F7C0
:10047A0075F60043F64043E101C2EFD2EE30EFFDDC
:10048A00AFC37E00EF75F010A4FFAEF0ADC27C00E2
:10049A00EE4CF53DEF4DF53E53E1FE43E80853E8D7
:1004AA00F843E101C2EFD2EE30EFFDAFC3E4FCFD49
:1004BA00FE780412039EA804A905AA06AB07AFC2D8
:1004CA00E4FCFDFEEB4FFFEA4EFEE94DFDE84CFC75
:0704DA008E3F8F4053E1FE4D
:0104E10022F8
:0F0D310075600043B10853B2F743B30253B4FDEA
:010D40002290
:10085C00020AF8E493A3F8E493A34003F68001F2B0
:10086C0008DFF48029E493A3F85407240CC8C3339D
:10087C00C4540F4420C8834004F456800146F6DF6C
:10088C00E4800B0102040810204080900CA4E47E4C
:10089C00019360BCA3FF543F30E509541FFEE49361
:1008AC00A360010ECF54C025E060A840B8E493A328
:1008BC00FAE493A3F8E493A3C8C582C8CAC583CA53
:1008CC00F0A3C8C582C8CAC583CADFE9DEE780BE0B
:010CBC000037
:10027B00BC000BBE0029EF8DF084FFADF022E4CC67
:10028B00F875F008EF2FFFEE33FEEC33FCEE9DEC30
:10029B00984005FCEE9DFE0FD5F0E9E4CEFD22ED76
:1002AB00F8F5F0EE8420D21CFEADF075F008EF2FC0
:1002BB00FFED33FD4007985006D5F0F222C398FDB1
:0502CB000FD5F0EA224E
:1002D00075F008758200EF2FFFEE33FECD33CDCCE5
:1002E00033CCC58233C5829BED9AEC99E582984068
:1002F0000CF582EE9BFEED9AFDEC99FC0FD5F0D645
:10030000E4CEFBE4CDFAE4CCF9A88222B800C1B96E
:100310000059BA002DEC8BF084CFCECDFCE5F0CBAC
:10032000F97818EF2FFFEE33FEED33FDEC33FCEBE5
:1003300033FB10D703994004EB99FB0FD8E5E4F9A0
:10034000FA227818EF2FFFEE33FEED33FDEC33FC8D
:10035000C933C910D7059BE99A4007EC9BFCE99A81
:10036000F90FD8E0E4C9FAE4CCFB2275F010EF2FC6
:10037000FFEE33FEED33FDCC33CCC833C810D707C6
:100380009BEC9AE899400AED9BFDEC9AFCE899F801
:0E0390000FD5F0DAE4CDFBE4CCFAE4C8F92294
:10039E00E8600FEFC333FFEE33FEED33FDEC33FCBD
:0303AE00D8F12261
:1003B100D083D082F8E4937012740193700DA3A3DB
:1003C10093F8740193F5828883E4737402936860EF
:0603D100EFA3A3A380DFEF
:0603D7008A838982E473B1
:1003DD00EC8EF0A4CCC5F0CCCDF8EFA4CEC5F02DAD
:1003ED00FDE43CFCE8A42EC8C5F03DFDE43CFCEF6B
:0D03FD00A4FFE5F028FEE43DFDE43CFC22F9
:00000001FF
