:03000000020A5D94
:0C0A5D00787FE4F6D8FD758162020AA4DF
:0D0E8600759501438E0275440175430022ED
:100E030075C7AA75C75575A3A475C7AA75C75575C0
:030E1300AB072208
:03008B00020EC79B
:070EC700538FEF7544013267
:0A0EA90075869C758F08439C042297
:01008100225C
:070ECE00120CBB120DD8222B
:070ED500120DC0120D69228D
:100C28007F647E00120DA7120081120E86120E0339
:100C3800120E5A120D88120EA9120003120CE3129A
:100C48000D69E54460FC7544001206301209CF12A4
:080C58000AE9120D0780EB22EE
:0A0EB3008F5DAF5D155DEF70F92251
:100E3A007FFA120EB37FFA120EB37FFA120EB322A2
:100DA7008E598F5AE55A155AAE5970021559FFEFE9
:090DB7004E6005120E3A80EC2298
:0C0E16000A113F065B4F666D7D277F6F61
:0300830002031362
:10031300C0E0C083C082C0D075D000C000C0075306
:10032300C4EFC280C281C284C290C292C29500430C
:10033300B10153B2FE43B10253B2FD43B11053B204
:10034300EF43B30153B4FE43B30453B4FB43B320AD
:1003530053B4DFE50D1202BA03710003A30103EFE7
:1003630002043B0304790404B705000004E6C280D9
:10037300E50E30E708D29053B3FE43B401E50F30E6
:10038300E708D29253B3FB43B404E51030E708D235
:100393009553B3DF43B42053B1FE43B2010204E6E5
:1003A300C284E50E30E008D28153B1FD43B202E5C9
:1003B3000E30E108D28053B1FE43B201E50E30E2C4
:1003C30008D29053B3FE43B401E50E30E308D29252
:1003D30053B3FB43B404E50E30E408D29553B3DFC3
:1003E30043B42053B1EF43B2100204E6D284E50FC5
:1003F30030E008C28153B1FD43B202E50F30E1089A
:10040300C28053B1FE43B201E50F30E208C29053FC
:10041300B3FE43B401E50F30E308C29253B3FB4389
:10042300B404E50F30E408C29553B3DF43B420535B
:10043300B1EF43B2100204E6C281E50E30E508D203
:100443008053B1FE43B201E50E30E608D29053B3B8
:10045300FE43B401E50F30E508D29253B3FB43B436
:1004630004E50F30E608D29553B3DF43B42053B10C
:10047300FD43B202806DD281E51030E008C28053A3
:10048300B1FE43B201E51030E108C29053B3FE431D
:10049300B401E51030E208C29253B3FB43B404E560
:1004A3001030E308C29553B3DF43B42053B1FD4387
:1004B300B202802FD280E51030E408C29053B3FE1D
:1004C30043B401E51030E508C29253B3FB43B404CF
:1004D300E51030E608C29553B3DF43B42053B1FEB1
:1004E30043B201050DAF0DEFD394054003750D0025
:0D04F300D007D000D0D0D082D083D0E0322E
:100D0700E50C450B6007AA0BA90C1202E0E50A6087
:100D170010750A00E50945086007AA08A909120223
:020D2700E022C8
:100DEE008E458F468C478D48854508854609854733
:050DFE000B85480C22EA
:100CBB0043B10153B2FE43B10253B2FD43B11053E2
:100CCB00B2EF43B30153B4FE43B30453B4FB43B38A
:080CDB002053B4DF53C4F722DB
:100DC00043C40143C40253C4FB75C6F275C5FA435C
:080DD0009C02D2AF43C40822CB
:1000030053B3DF43B42053B3FB43B40453B3FE43AE
:10001300B40153B1FE43B20153B1FD43B20253B134
:10002300EF43B210D295D292D290D280D281D284B1
:1000330053B1DF53B1DF43B22053B1BF43B2405397
:10004300B17F43B280C285C286C287750A01750833
:1000530000750900750B00750C00750D00750EFF1A
:10006300750FFF7510FF43C40143C40253C4FB75EE
:0E007300C6F275C5FA439C02D2AF43C4082200
:030EDC0000000013
:030E2200012C00A0
:0E0E6A00E52CD3940040047F0180027F00221B
:10070800E52C640460030207BEAF2B152BEF6003D2
:100718000207BEE52D1202BA074800075101075A21
:1007280002076303076C04077505077E060787073A
:1007380007900807990907A20A07AB0B000007B43E
:10074800D287752B0A752D0122C287752B0A752D44
:100758000222D287752B0A752D0322C287752B0AB0
:10076800752D0422D287752B0A752D0522C287752F
:100778002B1E752D0622D286752B0A752D0722C2CF
:1007880086752B0A752D0822D286752B0A752D09B8
:1007980022C286752B0A752D0A22D286752B0A75F8
:1007A8002D0B22C286752B1E752D0022C287C2868C
:0707B800752D00752B0022D6
:1007BF00E52C64056003020873AF2F152FEF60035C
:1007CF00020873E5301202BA07FF0008080108118A
:1007DF0002081A03082304082C05083506083E07EB
:1007EF0008470808500908590A08620B0000086BEF
:1007FF00D287752F3C75300122C287752F3C75301B
:10080F000222D287752F3C75300322C287752F3C89
:10081F0075300422D287752F3C75300522C287753B
:10082F002F3C75300622D287752F0A75300722C2EA
:10083F0087752F0A75300822D287752F0A753009F0
:10084F0022C287752F0A75300A22D287752F0A7533
:10085F00300B22C287752F3C75300022C28775304E
:05086F0000752F0022BE
:100927008F5E120E78EF700E120EBDEF7008E55E47
:10093700B40103120E29120086C3EF942CEE940122
:100947005010120E78EF700A752C00C285C287C24C
:100957008622120E6AEF700CE55E64027069752CD0
:1009670001D28522E55E6401704F052CAF2CEFD3D1
:1009770094054003752C01C285C287C286E52C12F7
:1009870002BA099C01099F0209A20309A50409B03B
:1009970005000009B6D28522D28722D28622C287D5
:1009A700C286752D00752B0022C286753000227510
:1009B7002C00C285C287C28622E55EB40209752C67
:0809C70000C285C287C286222E
:060D29008F498D4A8B4B3F
:100D2F00754C00854B4BE5491202BA0D410000008E
:090D3F000D46AF4A120927AF4C22
:010D48002288
:100B5E00120E78EF7010120EBDEF700A120E6AEFC1
:100B6E007004120ECE22052EAF2EEFD394634025C5
:100B7E00752E00120E78EF60190531AF31EFD39458
:100B8E0003400F753100E52A70047F0180027F005B
:100B9E008F2A750A01120086C3EF942CEE94015031
:100BAE000F120E78EF7009752C00C285C287C286AF
:070BBE001207081207BF2215
:100500007BFF7A0E79DCC003C002C0017B007A0059
:10051000791BA801AC02AD03D001D002D0037E004C
:100520007F0312015E120E78EF6068E52A606412A4
:100530000EE27E008E1E8F1FD3E51F9463E51E948E
:10054000004022AE1EAF1F7C007D64120184741136
:100550002FF8E6FF8F1BAE1EAF1F7C007D641201DB
:10056000848C1E8D1FAE1EAF1F7C007D0A1201847D
:1005700074112FF8E6FF8F1CAE1EAF1F7C007D0AA2
:10058000120184AF0574112FF8E6FFEF4480F51DCA
:10059000020626120EDF7E008E1E8F1FD3E51F94EB
:1005A00063E51E9400404CAE1EAF1F7C007D6412BC
:1005B000018474112FF8E6FF8F1BAE1EAF1F7C0065
:1005C0007D641201848C1E8D1FAE1EAF1F7C007DCA
:1005D0000A12018474112FF8E6FF8F1CAE1EAF1FA4
:1005E0007C007D0A120184AF0574112FF8E6FF8F9D
:1005F0001D8033D3E51F9409E51E94004013AE1E01
:10060000AF1F7C007D0A12018474112FF8E6FF8F62
:100610001BAE1EAF1F7C007D0A120184AF05741152
:0F0620002FF8E6FF8F1C851B0E851C0F851D1004
:01062F0022A8
:100D6900752E00753100752A007E0D7F29120E93AC
:0F0D79007E057F007C0B7D5E120DEE750A012258
:100BC500E521600415218003752201A294E433FF19
:100BD5008F5FE55F64016038E5287004752882221F
:100BE500E5286480703CE527655F6036855F27E50D
:100BF50022B52704E521700B85272275290175216A
:100C05001E800675290275220175260575250022A7
:100C1500E5276401600C75280075260075270175A8
:020C25002900A4
:010C270022AA
:100AE900E528547FFFEF60021528E526547FFFEFC4
:100AF90060021526120BC5E52764016057E52654E7
:100B09007FFFEF704FE526701F7526E4E524452326
:100B1900600F8524828523837B00AD29AF271202CC
:100B2900E475290375250322752699E525C394FFE4
:100B390050020525E5244523601AE5251313543F82
:100B4900FB852482852383AD29AF271202E4EF6058
:050B59000375290422D0
:0B0E93008E5B8F5C855B23855C242256
:100D880043B31053B4EF752800752600752100751C
:0F0D980025007529007527017523007524002299
:100C8F0001A4019A01900186017C01720168015E45
:100C9F000154014A014001900186017C01720168F3
:0C0CAF00015E0154014A01400136012C95
:05008600AE34AF35228D
:030EDF00AF33220C
:030EE200AF362206
:0E0E7800E536D3945A40047F0180027F0022A9
:0A0EBD003097047F0180027F0022BD
:100E2900C3E535942CE53494014005D2B0753800FA
:010E39002296
:1008740085344F853550E5396003153922120E78D9
:10088400EF6050754D00E54DC3940A5022AF4DEF13
:1008940025E0248FF582E4340CF583E493FE74019F
:1008A40093FFD3E5509FE54F9E5004054D80D7E557
:1008B4004DD3940A40047F0A8002AF4DEF75F00ACD
:1008C400A4FFC374649FF54EE54ED395334053851E
:1008D4004E3322754D00E54DC3940A5022AF4DEFBF
:1008E40025E024A5F582E4340CF583E493FE740139
:1008F40093FFD3E5509FE54F9E5004054D80D7E507
:100904004DD3940A40047F0A8002AF4DEF75F00A7C
:10091400A4FFC374649FF54EE54EC395335003851D
:020924004E3350
:0109260022AE
:1009CF0030B00BE53870057538018002C2B07F0674
:1009DF00120C607C007D481202E6C004C005C00600
:1009EF00C0077F08120C60AB07AA06E4F9F8D0071E
:1009FF00D006D005D004120215EF2408F536120EDA
:100A0F0078EF65376008120E788F3775393C0532ED
:100A1F00AF32EFD3946440357532007F07120C600C
:100A2F007C007D781202E6C004C005C006C0077FB7
:100A3F0008120C60AB07AA06E4F9F8D007D006D06D
:0E0A4F0005D0041202158E348F351208742261
:100CE30053ACFE43AD01C2B043B38053B47F7534FC
:100CF300007535007533007536007532007539009F
:040D0300753701221D
:0B0E9E008F60E560B40103120E2922F2
:060D49008F518D528B5307
:100D4F00755400855353E5511202BA0D610000002E
:090D5F000D66AF52120E9EAF5456
:010D68002268
:100E4A00120E78EF7006120EBDEF6003120ED52255
:01008200225B
:100DD8007E0D7F49120E937E007F827C0E7D4A1223
:060DE8000DEE750A012268
:030E2500013A008F
:100C60008F61E5611202BA0C79060C74070C7E08DC
:100C700000000C83AE3BAF3C22AE3DAF3E22AE3F08
:0F0C8000AF4022E47E007F0022E47E007F00224E
:10063000755500755600755700755800053AAF3A64
:10064000EFD3940A5003020707753A0053E8F043CA
:10065000E80743B30253B4FD75F60043F68043E167
:1006600001C2EFD2EE30EFFDAFC3E4FCFDFE780433
:100670001202A7A804A905AA06AB07AFC2E4FCFDB5
:10068000FEEB4FFFEA4EFEE94DFDE84CFC8E3B8F42
:100690003C53E1FE53E8F043E80643B10853B2F798
:1006A00075F60043F64043E101C2EFD2EE30EFFDB4
:1006B000AFC37E00EF75F010A4FFAEF0ADC27C00BA
:1006C000EE4CF53DEF4DF53E53E1FE43E80853E8AF
:1006D000F843E101C2EFD2EE30EFFDAFC3E4FCFD21
:1006E000FE78041202A7A804A905AA06AB07AFC2A8
:1006F000E4FCFDFEEB4FFFEA4EFEE94DFDE84CFC4D
:070700008E3F8F4053E1FE24
:0107070022CF
:0F0E5A0075620043B10853B2F743B30253B4FDBE
:010E69002266
:100A6900020C28E493A3F8E493A34003F68001F26F
:100A790008DFF48029E493A3F85407240CC8C3338E
:100A8900C4540F4420C8834004F456800146F6DF5D
:100A9900E4800B0102040810204080900E16E47EC9
:100AA900019360BCA3FF543F30E509541FFEE49352
:100AB900A360010ECF54C025E060A840B8E493A319
:100AC900FAE493A3F8E493A3C8C582C8CAC583CA44
:100AD900F0A3C8C582C8CAC583CADFE9DEE780BEFC
:010E280000C9
:10008E00E709F608DFFA8046E709F208DFFA803E54
:10009E0088828C83E709F0A3DFFA8032E309F60841
:1000AE00DFFA8078E309F208DFFA807088828C83A9
:1000BE00E309F0A3DFFA806489828A83E0A3F6085D
:1000CE00DFFA805889828A83E0A3F208DFFA804C37
:1000DE0080D280FA80C680D4806980F2803380100E
:1000EE0080A680EA809A80A880DA80E280CA803377
:1000FE0089828A83ECFAE493A3C8C582C8CCC583EF
:10010E00CCF0A3C8C582C8CCC583CCDFE9DEE780BE
:10011E000D89828A83E493A3F608DFF9ECFAA9F03D
:10012E00EDFB2289828A83ECFAE0A3C8C582C8CC93
:10013E00C583CCF0A3C8C582C8CCC583CCDFEADEAC
:10014E00E880DB89828A83E493A3F208DFF980CC0E
:10015E0088F0EF60010E4E60C388F0ED2402B40407
:10016E000050B9F582EB2402B4040050AF232345AE
:06017E0082239000DE73F5
:10018400BC000BBE0029EF8DF084FFADF022E4CC5F
:10019400F875F008EF2FFFEE33FEEC33FCEE9DEC28
:1001A400984005FCEE9DFE0FD5F0E9E4CEFD22ED6E
:1001B400F8F5F0EE8420D21CFEADF075F008EF2FB8
:1001C400FFED33FD4007985006D5F0F222C398FDA9
:0501D4000FD5F0EA2246
:1001D90075F008758200EF2FFFEE33FECD33CDCCDD
:1001E90033CCC58233C5829BED9AEC99E582984060
:1001F9000CF582EE9BFEED9AFDEC99FC0FD5F0D63D
:10020900E4CEFBE4CDFAE4CCF9A88222B800C1B966
:100219000059BA002DEC8BF084CFCECDFCE5F0CBA4
:10022900F97818EF2FFFEE33FEED33FDEC33FCEBDD
:1002390033FB10D703994004EB99FB0FD8E5E4F998
:10024900FA227818EF2FFFEE33FEED33FDEC33FC85
:10025900C933C910D7059BE99A4007EC9BFCE99A79
:10026900F90FD8E0E4C9FAE4CCFB2275F010EF2FBE
:10027900FFEE33FEED33FDCC33CCC833C810D707BE
:100289009BEC9AE899400AED9BFDEC9AFCE899F8F9
:0E0299000FD5F0DAE4CDFBE4CCFAE4C8F9228C
:1002A700E8600FEFC333FFEE33FEED33FDEC33FCB5
:0302B700D8F12259
:1002BA00D083D082F8E4937012740193700DA3A3D3
:1002CA0093F8740193F5828883E4737402936860E7
:0602DA00EFA3A3A380DFE7
:0602E0008A838982E473A9
:1002E600EC8EF0A4CCC5F0CCCDF8EFA4CEC5F02DA5
:1002F600FDE43CFCE8A42EC8C5F03DFDE43CFCEF63
:0D030600A4FFE5F028FEE43DFDE43CFC22F0
:00000001FF
