:0300000002064EA7
:0C064E00787FE4F6D8FD75815D0206950A
:0D0B3E00759501438E02754001753F002240
:03000B00020B6184
:0A0B6100853D8C853E8A7540013207
:100A520053890F438910538EF7753D3A753E97853A
:0C0A62003D8C853E8AD2A9D2AFD28C22F6
:010B9E002234
:070B7F00120972120A9F2205
:070B8600120A871209BC22CC
:10090E007F647E00120A6E120B9E120B3E1209FAC3
:10091E001209DB120A52120B121206DA1209BCE588
:10092E004060FC7540001204021207E412000E1221
:05093E00099A80EB2284
:0A0B6B008F57AF571557EF70F922AE
:100AF2007FFA120B6B7FFA120B6B7FFA120B6B22CF
:100A6E008E518F52E5521552AE5170021551FFEF55
:090A7E004E6005120AF280EC2220
:0C0ADF000A113F065B4F666D7D277F6F9C
:03008300020086F2
:10008600C0E0C083C082C0D075D000C000C0075396
:10009600C4EFC280C281C284C290C292C29500439C
:1000A600B10153B2FE43B10253B2FD43B11053B294
:1000B600EF43B30153B4FE43B30453B4FB43B3203D
:1000C60053B4DFE50D1203A900E400011601016235
:1000D6000201AE0301EC04022A0500000259C280A7
:1000E600E50E30E708D29053B3FE43B401E50F3076
:1000F600E708D29253B3FB43B404E51030E708D2C5
:100106009553B3DF43B42053B1FE43B20102025903
:10011600C284E50E30E008D28153B1FD43B202E558
:100126000E30E108D28053B1FE43B201E50E30E253
:1001360008D29053B3FE43B401E50E30E308D292E1
:1001460053B3FB43B404E50E30E408D29553B3DF52
:1001560043B42053B1EF43B210020259D284E50FE3
:1001660030E008C28153B1FD43B202E50F30E10829
:10017600C28053B1FE43B201E50F30E208C290538C
:10018600B3FE43B401E50F30E308C29253B3FB4319
:10019600B404E50F30E408C29553B3DF43B42053EB
:1001A600B1EF43B210020259C281E50E30E508D222
:1001B6008053B1FE43B201E50E30E608D29053B348
:1001C600FE43B401E50F30E508D29253B3FB43B4C6
:1001D60004E50F30E608D29553B3DF43B42053B19C
:1001E600FD43B202806DD281E51030E008C2805333
:1001F600B1FE43B201E51030E108C29053B3FE43AD
:10020600B401E51030E208C29253B3FB43B404E5EF
:100216001030E308C29553B3DF43B42053B1FD4316
:10022600B202802FD280E51030E408C29053B3FEAC
:1002360043B401E51030E508C29253B3FB43B4045E
:10024600E51030E608C29553B3DF43B42053B1FE40
:1002560043B201050DAF0DEFD394054003750D00B4
:0D026600D007D000D0D0D082D083D0E032BD
:10099A00E50C450B6007AA0BA90C1203CFE50A6008
:1009AA0010750A00E50945086007AA08A909120393
:0209BA00CF224A
:100AB5008E418F428C438D4485410885420985438B
:050AC5000B85440C222A
:100ACA008E538F54E509B55409E508B553047F01DF
:050ADA0080027F0022F4
:1009720043B10153B2FE43B10253B2FD43B110532E
:10098200B2EF43B30153B4FE43B30453B4FB43B3D6
:080992002053B4DF53C4F72227
:100A870043C40143C40253C4FB75C6F275C5FA4398
:080A97009C02D2AF43C4082207
:1006DA0075580153B3DF43B42053B3FB43B40453F7
:1006EA00B3FE43B40153B1FE43B20153B1FD43B269
:1006FA000253B1EF43B210D295D292D290D280D2A5
:10070A0081D28453B1DF53B1DF43B22053B1BF4327
:10071A00B24053B17F43B280C285D286D28785B1B7
:10072A005885B258750A01750800750900750B00DD
:10073A00750C00750D00750EFF750FFF7510FF43E0
:10074A00C40143C40253C4FB75C6F275C5FA439C7F
:06075A0002D2AF43C40807
:010760002276
:030AEB00013300D4
:0E0B2200E533D3940040047F0180027F00225F
:10059700E5336404600302064DAF321532EF6003A2
:1005A70002064DE5341203A905D70005E00105E968
:1005B7000205F20305FB04060405060D06061607E9
:1005C700061F0806280906310A063A0B00000643EB
:1005D700D28775320A75340122C28775320A75349B
:1005E7000222D28775320A75340322C28775320A0E
:1005F70075340422D28775320A75340522C287758D
:10060700321E75340622D28675320A75340722C225
:100617008675320A75340822D28675320A7534090E
:1006270022C28675320A75340A22D28675320A7555
:10063700340B22C28675321E75340022C287C286E9
:07064700753400753200223A
:100761008F59120B30EF700E120B75EF7008E559AF
:10077100B40103120B8D120B22EF700CE5596402C8
:100781007060753301D28522E559640170460533E5
:10079100AF33EFD394044003753301C285C287C2DE
:1007A10086E5331203A907B70107BA0207BD03079C
:1007B100C004000007CBD28522D28722D28622C272
:1007C10087C28675340075320022753300C285C236
:1007D10087C28622E559B40209753300C285C287F2
:0307E100C28622AB
:060A18008F458D468B475F
:100A1E00754800E5451203A90A2D0000000A32AF01
:060A2E0046120761AF480B
:010A3400229F
:1008C500120B30EF7010120B75EF700A120B22EF3E
:1008D5007004120B7F220535AF35EFD394634025A5
:1008E500753500120B30EF60190536AF36EFD3942E
:1008F50003400F753600E53170047F0180027F00EB
:090905008F31750A0112059722D9
:1004DA00120B30EF605CE5316058120B9B7E008E88
:1004EA001E8F1FAE1EAF1F7C007D64120273741133
:1004FA002FF8E6FF8F1BAE1EAF1F7C007D64120231
:10050A00738C1E8D1FAE1EAF1F7C007D0A120273F4
:10051A0074112FF8E6FF8F1CAE1EAF1F7C007D0AF8
:10052A00120273AF0574112FF8E6FFEF4480F51D30
:10053A008051120B938E1E8F1FAE1EAF1F7C007D43
:10054A006412027374112FF8E6FF8F1BAE1EAF1FE1
:10055A007C007D641202738C1E8D1FAE1EAF1F7C41
:10056A00007D0A12027374112FF8E6FF8F1CAE1E6B
:10057A00AF1F7C007D0A120273AF0574112FF8E6D3
:0C058A00FF8F1D851B0E851C0F851D10AA
:010596002242
:1009BC007535007536007531007E0A7F18120B4BA9
:0F09CC007E047FDA7C087DC5120AB5750A012208
:080003007E047FDA120ACA2212
:10086200E521600415218003752201A294E433FF7F
:100872008F5AE55A64016038E5287004752882228F
:10088200E5286480703CE527655A6036855A27E57D
:1008920022B52704E521700B8527227529017521D0
:1008A2001E8006752902752201752605752500220E
:1008B200E5276401600C752800752600752701750F
:0208C20029000B
:0108C4002211
:10000E00E528547FFFEF60021528E526547FFFEFA9
:10001E0060021526120862E52764016057E5265432
:10002E007FFFEF704FE526701F7526E4E52445230C
:10003E00600F8524828523837B00AD29AF271203B1
:10004E00D375290375250322752699E525C394FFDB
:10005E0050020525E5244523601AE5251313543F68
:10006E00FB852482852383AD29AF271203D3EF604E
:05007E000375290422B6
:0B0B4B008E558F5685552385562422B9
:1009DB0043B31053B4EF75280075260075210075CD
:0F09EB002500752900752701752300752400224A
:050B9300AE39AF3A226B
:030B9800AF382251
:030B9B00AF3B224B
:0E0B3000E53BD3945A40047F0180027F0022EF
:0A0B75003097047F0180027F002208
:060B8D00D2B0753C00220D
:010B9F002233
:1007E40030B00BE53C7005753C018002C2B0AF37F8
:1007F4000537EFD3940A40657537007F0712094324
:100804007C007DB41203D5C004C005C006C0077FB8
:1008140008120943AB07AA06E4F9F8D007D006D0BA
:1008240005D0041203048E398F3A120B9F7F0612EF
:1008340009437C007D481203D5C004C005C006C02E
:10084400077F08120943AB07AA06E4F9F8D007D0DA
:0E08540006D005D004120304EF2408F53B2261
:1009FA0053ACFE43AD01C2B043B38053B47F7539E3
:0E0A0A0000753A00753800753B007537FE2206
:0B0B56008F5BE55BB40103120B8D22E6
:060A35008F498D4A8B4B36
:100A3B00754C00E5491203A90A4A0000000A4FAFA2
:060A4B004A120B56AF4CED
:010A51002282
:100B0200120B30EF7006120B75EF6003120B862288
:010BA0002232
:100A9F007E0A7F35120B4B7E0B7FA07C0B7D0212E3
:060AAF000AB5750A0122E0
:030AEE00012A00DA
:100943008F5CE55C1203A9095C0609570709610876
:1009530000000966AE2BAF2C22AE2DAF2E22AE2F98
:0F096300AF3022E47E007F0022E47E007F00227E
:10040200754D00754E00754F00755000052AAF2AD4
:10041200EFD3940550030204D9752A0053E8F04340
:10042200E80743B30253B4FD75F60043F68043E197
:1004320001C2EFD2EE30EFFDAFC3E4FCFDFE780463
:10044200120396A804A905AA06AB07AFC2E4FCFDF5
:10045200FEEB4FFFEA4EFEE94DFDE84CFC8E2B8F82
:100462002C53E1FE53E8F043E80643B10853B2F7D8
:1004720075F60043F64043E101C2EFD2EE30EFFDE4
:10048200AFC37E00EF75F010A4FFAEF0ADC27C00EA
:10049200EE4CF52DEF4DF52E53E1FE43E80853E8FF
:1004A200F843E101C2EFD2EE30EFFDAFC3E4FCFD51
:1004B200FE7804120396A804A905AA06AB07AFC2E8
:1004C200E4FCFDFEEB4FFFEA4EFEE94DFDE84CFC7D
:0704D2008E2F8F3053E1FE75
:0104D9002200
:010BA1002231
:0F0B1200755D0043B10853B2F743B30253B4FD0E
:010B210022B1
:10065A0002090EE493A3F8E493A34003F68001F29F
:10066A0008DFF48029E493A3F85407240CC8C333A1
:10067A00C4540F4420C8834004F456800146F6DF70
:10068A00E4800B0102040810204080900ADFE47E17
:10069A00019360BCA3FF543F30E509541FFEE49365
:1006AA00A360010ECF54C025E060A840B8E493A32C
:1006BA00FAE493A3F8E493A3C8C582C8CAC583CA57
:1006CA00F0A3C8C582C8CAC583CADFE9DEE780BE0F
:010AF1000004
:10027300BC000BBE0029EF8DF084FFADF022E4CC6F
:10028300F875F008EF2FFFEE33FEEC33FCEE9DEC38
:10029300984005FCEE9DFE0FD5F0E9E4CEFD22ED7E
:1002A300F8F5F0EE8420D21CFEADF075F008EF2FC8
:1002B300FFED33FD4007985006D5F0F222C398FDB9
:0502C3000FD5F0EA2256
:1002C80075F008758200EF2FFFEE33FECD33CDCCED
:1002D80033CCC58233C5829BED9AEC99E582984070
:1002E8000CF582EE9BFEED9AFDEC99FC0FD5F0D64D
:1002F800E4CEFBE4CDFAE4CCF9A88222B800C1B977
:100308000059BA002DEC8BF084CFCECDFCE5F0CBB4
:10031800F97818EF2FFFEE33FEED33FDEC33FCEBED
:1003280033FB10D703994004EB99FB0FD8E5E4F9A8
:10033800FA227818EF2FFFEE33FEED33FDEC33FC95
:10034800C933C910D7059BE99A4007EC9BFCE99A89
:10035800F90FD8E0E4C9FAE4CCFB2275F010EF2FCE
:10036800FFEE33FEED33FDCC33CCC833C810D707CE
:100378009BEC9AE899400AED9BFDEC9AFCE899F809
:0E0388000FD5F0DAE4CDFBE4CCFAE4C8F9229C
:10039600E8600FEFC333FFEE33FEED33FDEC33FCC5
:0303A600D8F12269
:1003A900D083D082F8E4937012740193700DA3A3E3
:1003B90093F8740193F5828883E4737402936860F7
:0603C900EFA3A3A380DFF7
:0603CF008A838982E473B9
:1003D500EC8EF0A4CCC5F0CCCDF8EFA4CEC5F02DB5
:1003E500FDE43CFCE8A42EC8C5F03DFDE43CFCEF73
:0D03F500A4FFE5F028FEE43DFDE43CFC2201
:00000001FF
